{
  "transactions": [
    {
      "hash": "0x646bb4fd2617ff82afd340b3935d6a9b828d7b9385342e4bc3617a3ca0eb6d2c",
      "transactionType": "CALL",
      "contractName": null,
      "contractAddress": "0xed84043cba395bd3eacec6b378e49cd66e94941d",
      "function": "withdrawToken(address,uint256,address)",
      "arguments": [
        "0xE5DA20F15420aD15DE0fa650600aFc998bbE3955",
        "329203765941125493268560",
        "0xFC4B72FD6309d2E68B595c56EAcb256D2fE9b881"
      ],
      "transaction": {
        "from": "0xfc4b72fd6309d2e68b595c56eacb256d2fe9b881",
        "to": "0xed84043cba395bd3eacec6b378e49cd66e94941d",
        "gas": "0x17573",
        "value": "0x0",
        "input": "0x3ccdbb28000000000000000000000000e5da20f15420ad15de0fa650600afc998bbe39550000000000000000000000000000000000000000000045b62c025f2617cfa050000000000000000000000000fc4b72fd6309d2e68b595c56eacb256d2fe9b881",
        "nonce": "0x5",
        "chainId": "0x92"
      },
      "additionalContracts": [],
      "isFixedGasLimit": false
    },
    {
      "hash": "0xd03a98419fb1633256e8b4cefc01ea77fd3bdd627910137e2260cb44797969f2",
      "transactionType": "CALL",
      "contractName": null,
      "contractAddress": "0xed84043cba395bd3eacec6b378e49cd66e94941d",
      "function": "updateWhitelist(address,bool)",
      "arguments": [
        "0x6389f7083468A6005ABFAf8126b688E9AEde3BA9",
        "true"
      ],
      "transaction": {
        "from": "0xfc4b72fd6309d2e68b595c56eacb256d2fe9b881",
        "to": "0xed84043cba395bd3eacec6b378e49cd66e94941d",
        "gas": "0x95d0",
        "value": "0x0",
        "input": "0x0d392cd90000000000000000000000006389f7083468a6005abfaf8126b688e9aede3ba90000000000000000000000000000000000000000000000000000000000000001",
        "nonce": "0x6",
        "chainId": "0x92"
      },
      "additionalContracts": [],
      "isFixedGasLimit": false
    }
  ],
  "receipts": [
    {
      "status": "0x1",
      "cumulativeGasUsed": "0xff5a",
      "logs": [
        {
          "address": "0xe5da20f15420ad15de0fa650600afc998bbe3955",
          "topics": [
            "0xddf252ad1be2c89b69c2b068fc378daa952ba7f163c4a11628f55a4df523b3ef",
            "0x000000000000000000000000ed84043cba395bd3eacec6b378e49cd66e94941d",
            "0x000000000000000000000000fc4b72fd6309d2e68b595c56eacb256d2fe9b881"
          ],
          "data": "0x0000000000000000000000000000000000000000000045b62c025f2617cfa050",
          "blockHash": "0x96cfeb5e0f4786047f8b8c72f79450246b32d852dc8c8241e791de3f05339df5",
          "blockNumber": "0x2c1fe73",
          "blockTimestamp": "0x68c02dda",
          "transactionHash": "0x646bb4fd2617ff82afd340b3935d6a9b828d7b9385342e4bc3617a3ca0eb6d2c",
          "transactionIndex": "0x0",
          "logIndex": "0x0",
          "removed": false
        }
      ],
      "logsBloom": "0x00000000080000000000000000000000000000000000000000000000000000000000000000000000000100000000000008000000000000000000008000000000000000000000000000000008000000000000000000020000000000000000000000000000000000000000000000000000000002000000000000000010000000000002000000000000000000000000000000000000000000000000000000000000000000000000000000000000000000000000000000000000000000000000000000000002000000000000000000000800000000000000000000000000000000000000000000000000000000000000000000000400000000000000000000000000",
      "type": "0x2",
      "transactionHash": "0x646bb4fd2617ff82afd340b3935d6a9b828d7b9385342e4bc3617a3ca0eb6d2c",
      "transactionIndex": "0x0",
      "blockHash": "0x96cfeb5e0f4786047f8b8c72f79450246b32d852dc8c8241e791de3f05339df5",
      "blockNumber": "0x2c1fe73",
      "gasUsed": "0xff5a",
      "effectiveGasPrice": "0x8a335691",
      "blobGasPrice": "0x1",
      "from": "0xfc4b72fd6309d2e68b595c56eacb256d2fe9b881",
      "to": "0xed84043cba395bd3eacec6b378e49cd66e94941d",
      "contractAddress": null
    },
    {
      "status": "0x1",
      "cumulativeGasUsed": "0x16bd1",
      "logs": [
        {
          "address": "0xed84043cba395bd3eacec6b378e49cd66e94941d",
          "topics": [
            "0xf93f9a76c1bf3444d22400a00cb9fe990e6abe9dbb333fda48859cfee864543d",
            "0x0000000000000000000000006389f7083468a6005abfaf8126b688e9aede3ba9"
          ],
          "data": "0x0000000000000000000000000000000000000000000000000000000000000001",
          "blockHash": "0x96cfeb5e0f4786047f8b8c72f79450246b32d852dc8c8241e791de3f05339df5",
          "blockNumber": "0x2c1fe73",
          "blockTimestamp": "0x68c02dda",
          "transactionHash": "0xd03a98419fb1633256e8b4cefc01ea77fd3bdd627910137e2260cb44797969f2",
          "transactionIndex": "0x1",
          "logIndex": "0x1",
          "removed": false
        }
      ],
      "logsBloom": "0x00000000000000000000000000000000000000000000000000100000000000000000000000200000000000000000000000000000000000000000000000000000000000000000000000000000000080000000000000000000000000000000000000000001000000000000000000000000000000000000000000000000000000000000000000000000000000000004000000000000000000000000000000000000000000000000000000000000000000000000000000000000200000000000000000000000000000000000000000000000000008000000000000000000000000000000000000000000000000000000040000000000002000000000000000000000",
      "type": "0x2",
      "transactionHash": "0xd03a98419fb1633256e8b4cefc01ea77fd3bdd627910137e2260cb44797969f2",
      "transactionIndex": "0x1",
      "blockHash": "0x96cfeb5e0f4786047f8b8c72f79450246b32d852dc8c8241e791de3f05339df5",
      "blockNumber": "0x2c1fe73",
      "gasUsed": "0x6c77",
      "effectiveGasPrice": "0x8a335691",
      "blobGasPrice": "0x1",
      "from": "0xfc4b72fd6309d2e68b595c56eacb256d2fe9b881",
      "to": "0xed84043cba395bd3eacec6b378e49cd66e94941d",
      "contractAddress": null
    }
  ],
  "libraries": [],
  "pending": [],
  "returns": {},
  "timestamp": 1758555776814,
  "chain": 146,
  "commit": null
}