{
  "transactions": [
    {
      "hash": "0xf0dc9e126718f713b3018db4671dc3a8e90fd5c7593dd4cb5bf568c91d84182d",
      "transactionType": "CALL",
      "contractName": null,
      "contractAddress": "0xed84043cba395bd3eacec6b378e49cd66e94941d",
      "function": "withdrawToken(address,uint256,address)",
      "arguments": [
        "0xE5DA20F15420aD15DE0fa650600aFc998bbE3955",
        "329203765941125493268560",
        "0xFC4B72FD6309d2E68B595c56EAcb256D2fE9b881"
      ],
      "transaction": {
        "from": "0xfc4b72fd6309d2e68b595c56eacb256d2fe9b881",
        "to": "0xed84043cba395bd3eacec6b378e49cd66e94941d",
        "gas": "0x17573",
        "value": "0x0",
        "input": "0x3ccdbb28000000000000000000000000e5da20f15420ad15de0fa650600afc998bbe39550000000000000000000000000000000000000000000045b62c025f2617cfa050000000000000000000000000fc4b72fd6309d2e68b595c56eacb256d2fe9b881",
        "nonce": "0x5",
        "chainId": "0x92"
      },
      "additionalContracts": [],
      "isFixedGasLimit": false
    },
    {
      "hash": "0x39a6b4df5111e6a6ba53d7f4320873727284fa5c9fc45bb55ec5dddcbb624162",
      "transactionType": "CALL",
      "contractName": null,
      "contractAddress": "0xed84043cba395bd3eacec6b378e49cd66e94941d",
      "function": "updateWhitelist(address,bool)",
      "arguments": [
        "0xb16Fd71F97F83e9813b61885C2f5B338B8322153",
        "true"
      ],
      "transaction": {
        "from": "0xfc4b72fd6309d2e68b595c56eacb256d2fe9b881",
        "to": "0xed84043cba395bd3eacec6b378e49cd66e94941d",
        "gas": "0x9eb2",
        "value": "0x0",
        "input": "0x0d392cd9000000000000000000000000b16fd71f97f83e9813b61885c2f5b338b83221530000000000000000000000000000000000000000000000000000000000000001",
        "nonce": "0x6",
        "chainId": "0x92"
      },
      "additionalContracts": [],
      "isFixedGasLimit": false
    }
  ],
  "receipts": [
    {
      "status": "0x1",
      "cumulativeGasUsed": "0xff5a",
      "logs": [
        {
          "address": "0xe5da20f15420ad15de0fa650600afc998bbe3955",
          "topics": [
            "0xddf252ad1be2c89b69c2b068fc378daa952ba7f163c4a11628f55a4df523b3ef",
            "0x000000000000000000000000ed84043cba395bd3eacec6b378e49cd66e94941d",
            "0x000000000000000000000000fc4b72fd6309d2e68b595c56eacb256d2fe9b881"
          ],
          "data": "0x0000000000000000000000000000000000000000000045b62c025f2617cfa050",
          "blockHash": "0x740892b33db26c0ad48da468bdce3253874b3c86e5ceedee8f9f552a434ff37a",
          "blockNumber": "0x2c1fe73",
          "blockTimestamp": "0x68c02dc8",
          "transactionHash": "0xf0dc9e126718f713b3018db4671dc3a8e90fd5c7593dd4cb5bf568c91d84182d",
          "transactionIndex": "0x0",
          "logIndex": "0x0",
          "removed": false
        }
      ],
      "logsBloom": "0x00000000080000000000000000000000000000000000000000000000000000000000000000000000000100000000000008000000000000000000008000000000000000000000000000000008000000000000000000020000000000000000000000000000000000000000000000000000000002000000000000000010000000000002000000000000000000000000000000000000000000000000000000000000000000000000000000000000000000000000000000000000000000000000000000000002000000000000000000000800000000000000000000000000000000000000000000000000000000000000000000000400000000000000000000000000",
      "type": "0x2",
      "transactionHash": "0xf0dc9e126718f713b3018db4671dc3a8e90fd5c7593dd4cb5bf568c91d84182d",
      "transactionIndex": "0x0",
      "blockHash": "0x740892b33db26c0ad48da468bdce3253874b3c86e5ceedee8f9f552a434ff37a",
      "blockNumber": "0x2c1fe73",
      "gasUsed": "0xff5a",
      "effectiveGasPrice": "0x8a334dba",
      "blobGasPrice": "0x1",
      "from": "0xfc4b72fd6309d2e68b595c56eacb256d2fe9b881",
      "to": "0xed84043cba395bd3eacec6b378e49cd66e94941d",
      "contractAddress": null
    },
    {
      "status": "0x1",
      "cumulativeGasUsed": "0x16bdd",
      "logs": [
        {
          "address": "0xed84043cba395bd3eacec6b378e49cd66e94941d",
          "topics": [
            "0xf93f9a76c1bf3444d22400a00cb9fe990e6abe9dbb333fda48859cfee864543d",
            "0x000000000000000000000000b16fd71f97f83e9813b61885c2f5b338b8322153"
          ],
          "data": "0x0000000000000000000000000000000000000000000000000000000000000001",
          "blockHash": "0x740892b33db26c0ad48da468bdce3253874b3c86e5ceedee8f9f552a434ff37a",
          "blockNumber": "0x2c1fe73",
          "blockTimestamp": "0x68c02dc8",
          "transactionHash": "0x39a6b4df5111e6a6ba53d7f4320873727284fa5c9fc45bb55ec5dddcbb624162",
          "transactionIndex": "0x1",
          "logIndex": "0x1",
          "removed": false
        }
      ],
      "logsBloom": "0x00000000000000000000000000000000000000000000002000100000000000000000000000000000000000000000000000000000000000000000000000000000000000000000000000000000000000000000000000000000000000000000000000000001000000000000000000000000000000000000000000000000000000000000000000000000000000000000000000000000000000000000000000000000000000000000020000000000000000000000000000000000200000000000000100000000000000000000000000000000000008000000000000000000000000000000000000000000000000000000040000000000002000000000000000000000",
      "type": "0x2",
      "transactionHash": "0x39a6b4df5111e6a6ba53d7f4320873727284fa5c9fc45bb55ec5dddcbb624162",
      "transactionIndex": "0x1",
      "blockHash": "0x740892b33db26c0ad48da468bdce3253874b3c86e5ceedee8f9f552a434ff37a",
      "blockNumber": "0x2c1fe73",
      "gasUsed": "0x6c83",
      "effectiveGasPrice": "0x8a334dba",
      "blobGasPrice": "0x1",
      "from": "0xfc4b72fd6309d2e68b595c56eacb256d2fe9b881",
      "to": "0xed84043cba395bd3eacec6b378e49cd66e94941d",
      "contractAddress": null
    }
  ],
  "libraries": [],
  "pending": [],
  "returns": {},
  "timestamp": 1758554870553,
  "chain": 146,
  "commit": null
}