{
  "transactions": [
    {
      "hash": "0xefe02ef545b1994fe056723595880d341d67d69ecf048e47ed9efd1078ba727d",
      "transactionType": "CALL",
      "contractName": null,
      "contractAddress": "0x760c3c9c5985e29cf4239fa1e938a19471393acd",
      "function": null,
      "arguments": null,
      "transaction": {
        "from": "0xf39fd6e51aad88f6f4ce6ab8827279cfffb92266",
        "to": "0x760c3c9c5985e29cf4239fa1e938a19471393acd",
        "gas": "0x714d",
        "value": "0x8ac7230489e80000",
        "input": "0x",
        "nonce": "0x6",
        "chainId": "0x92"
      },
      "additionalContracts": [],
      "isFixedGasLimit": false
    },
    {
      "hash": "0xda4fa01cf4e3cf5d67f4a889428fbdb97bc924dabbf51c591fd944be9ce65f7f",
      "transactionType": "CALL",
      "contractName": null,
      "contractAddress": "0xb16fd71f97f83e9813b61885c2f5b338b8322153",
      "function": null,
      "arguments": null,
      "transaction": {
        "from": "0xf39fd6e51aad88f6f4ce6ab8827279cfffb92266",
        "to": "0xb16fd71f97f83e9813b61885c2f5b338b8322153",
        "gas": "0x714d",
        "value": "0x8ac7230489e80000",
        "input": "0x",
        "nonce": "0x7",
        "chainId": "0x92"
      },
      "additionalContracts": [],
      "isFixedGasLimit": false
    },
    {
      "hash": null,
      "transactionType": "CALL",
      "contractName": null,
      "contractAddress": "0x83a6d8d9aa761e7e08ebe0ba5399970f9e8f61d9",
      "function": "transfer(address,uint256)",
      "arguments": [
        "0x760c3c9C5985E29cf4239FA1E938a19471393acd",
        "10000000000000000000000"
      ],
      "transaction": {
        "from": "0xab82b2ea6bb96d56b5996d9219d2bfd9d6943520",
        "to": "0x83a6d8d9aa761e7e08ebe0ba5399970f9e8f61d9",
        "gas": "0x11689",
        "value": "0x0",
        "input": "0xa9059cbb000000000000000000000000760c3c9c5985e29cf4239fa1e938a19471393acd00000000000000000000000000000000000000000000021e19e0c9bab2400000",
        "nonce": "0x0",
        "chainId": "0x92"
      },
      "additionalContracts": [],
      "isFixedGasLimit": false
    },
    {
      "hash": null,
      "transactionType": "CALL",
      "contractName": null,
      "contractAddress": "0xe5da20f15420ad15de0fa650600afc998bbe3955",
      "function": "transfer(address,uint256)",
      "arguments": [
        "0xb16Fd71F97F83e9813b61885C2f5B338B8322153",
        "5100000000000000000000"
      ],
      "transaction": {
        "from": "0xdcf937feb1761df3ca3f1ce861c14d5e0acb148e",
        "to": "0xe5da20f15420ad15de0fa650600afc998bbe3955",
        "gas": "0xd534",
        "value": "0x0",
        "input": "0xa9059cbb000000000000000000000000b16fd71f97f83e9813b61885c2f5b338b832215300000000000000000000000000000000000000000000011478b7c30abc300000",
        "nonce": "0x0",
        "chainId": "0x92"
      },
      "additionalContracts": [],
      "isFixedGasLimit": false
    },
    {
      "hash": null,
      "transactionType": "CALL",
      "contractName": null,
      "contractAddress": "0x30047cca309b7aac3613ae5b990cf460253c9b98",
      "function": "_setMintPaused(address,bool)",
      "arguments": [
        "0x16d4b53DE6abA4B68480C7A3B6711DF25fcb12D7",
        "false"
      ],
      "transaction": {
        "from": "0xfc4b72fd6309d2e68b595c56eacb256d2fe9b881",
        "to": "0x30047cca309b7aac3613ae5b990cf460253c9b98",
        "gas": "0xd0f5",
        "value": "0x0",
        "input": "0x3bcf7ec100000000000000000000000016d4b53de6aba4b68480c7a3b6711df25fcb12d70000000000000000000000000000000000000000000000000000000000000000",
        "nonce": "0x0",
        "chainId": "0x92"
      },
      "additionalContracts": [],
      "isFixedGasLimit": false
    },
    {
      "hash": null,
      "transactionType": "CALL",
      "contractName": null,
      "contractAddress": "0x30047cca309b7aac3613ae5b990cf460253c9b98",
      "function": "_setBorrowPaused(address,bool)",
      "arguments": [
        "0xb2a43445B97cd6A179033788D763B8d0c0487E36",
        "false"
      ],
      "transaction": {
        "from": "0xfc4b72fd6309d2e68b595c56eacb256d2fe9b881",
        "to": "0x30047cca309b7aac3613ae5b990cf460253c9b98",
        "gas": "0xcf99",
        "value": "0x0",
        "input": "0x18c882a5000000000000000000000000b2a43445b97cd6a179033788d763b8d0c0487e360000000000000000000000000000000000000000000000000000000000000000",
        "nonce": "0x1",
        "chainId": "0x92"
      },
      "additionalContracts": [],
      "isFixedGasLimit": false
    },
    {
      "hash": null,
      "transactionType": "CALL",
      "contractName": null,
      "contractAddress": "0xed84043cba395bd3eacec6b378e49cd66e94941d",
      "function": "unpause()",
      "arguments": [],
      "transaction": {
        "from": "0xfc4b72fd6309d2e68b595c56eacb256d2fe9b881",
        "to": "0xed84043cba395bd3eacec6b378e49cd66e94941d",
        "gas": "0xa0ad",
        "value": "0x0",
        "input": "0x3f4ba83a",
        "nonce": "0x2",
        "chainId": "0x92"
      },
      "additionalContracts": [],
      "isFixedGasLimit": false
    },
    {
      "hash": null,
      "transactionType": "CALL",
      "contractName": null,
      "contractAddress": "0x30047cca309b7aac3613ae5b990cf460253c9b98",
      "function": "enterMarkets(address[])",
      "arguments": [
        "[0x16d4b53DE6abA4B68480C7A3B6711DF25fcb12D7, 0xb2a43445B97cd6A179033788D763B8d0c0487E36]"
      ],
      "transaction": {
        "from": "0x760c3c9c5985e29cf4239fa1e938a19471393acd",
        "to": "0x30047cca309b7aac3613ae5b990cf460253c9b98",
        "gas": "0x358aa",
        "value": "0x0",
        "input": "0xc29982380000000000000000000000000000000000000000000000000000000000000020000000000000000000000000000000000000000000000000000000000000000200000000000000000000000016d4b53de6aba4b68480c7a3b6711df25fcb12d7000000000000000000000000b2a43445b97cd6a179033788d763b8d0c0487e36",
        "nonce": "0x0",
        "chainId": "0x92"
      },
      "additionalContracts": [],
      "isFixedGasLimit": false
    },
    {
      "hash": null,
      "transactionType": "CALL",
      "contractName": null,
      "contractAddress": "0x83a6d8d9aa761e7e08ebe0ba5399970f9e8f61d9",
      "function": "approve(address,uint256)",
      "arguments": [
        "0x16d4b53DE6abA4B68480C7A3B6711DF25fcb12D7",
        "1000000000000000000000"
      ],
      "transaction": {
        "from": "0x760c3c9c5985e29cf4239fa1e938a19471393acd",
        "to": "0x83a6d8d9aa761e7e08ebe0ba5399970f9e8f61d9",
        "gas": "0x1094f",
        "value": "0x0",
        "input": "0x095ea7b300000000000000000000000016d4b53de6aba4b68480c7a3b6711df25fcb12d700000000000000000000000000000000000000000000003635c9adc5dea00000",
        "nonce": "0x1",
        "chainId": "0x92"
      },
      "additionalContracts": [],
      "isFixedGasLimit": false
    },
    {
      "hash": null,
      "transactionType": "CALL",
      "contractName": null,
      "contractAddress": "0x16d4b53de6aba4b68480c7a3b6711df25fcb12d7",
      "function": "mint(uint256)",
      "arguments": [
        "1000000000000000000000"
      ],
      "transaction": {
        "from": "0x760c3c9c5985e29cf4239fa1e938a19471393acd",
        "to": "0x16d4b53de6aba4b68480c7a3b6711df25fcb12d7",
        "gas": "0x2db19",
        "value": "0x0",
        "input": "0xa0712d6800000000000000000000000000000000000000000000003635c9adc5dea00000",
        "nonce": "0x2",
        "chainId": "0x92"
      },
      "additionalContracts": [],
      "isFixedGasLimit": false
    },
    {
      "hash": null,
      "transactionType": "CALL",
      "contractName": null,
      "contractAddress": "0xb2a43445b97cd6a179033788d763b8d0c0487e36",
      "function": "borrow(uint256)",
      "arguments": [
        "5000000000000000000000"
      ],
      "transaction": {
        "from": "0x760c3c9c5985e29cf4239fa1e938a19471393acd",
        "to": "0xb2a43445b97cd6a179033788d763b8d0c0487e36",
        "gas": "0x1350b1",
        "value": "0x0",
        "input": "0xc5ebeaec00000000000000000000000000000000000000000000010f0cf064dd59200000",
        "nonce": "0x3",
        "chainId": "0x92"
      },
      "additionalContracts": [],
      "isFixedGasLimit": false
    },
    {
      "hash": null,
      "transactionType": "CALL",
      "contractName": null,
      "contractAddress": "0xed84043cba395bd3eacec6b378e49cd66e94941d",
      "function": "updateWhitelist(address,bool)",
      "arguments": [
        "0xb16Fd71F97F83e9813b61885C2f5B338B8322153",
        "true"
      ],
      "transaction": {
        "from": "0xfc4b72fd6309d2e68b595c56eacb256d2fe9b881",
        "to": "0xed84043cba395bd3eacec6b378e49cd66e94941d",
        "gas": "0x1013f",
        "value": "0x0",
        "input": "0x0d392cd9000000000000000000000000b16fd71f97f83e9813b61885c2f5b338b83221530000000000000000000000000000000000000000000000000000000000000001",
        "nonce": "0x3",
        "chainId": "0x92"
      },
      "additionalContracts": [],
      "isFixedGasLimit": false
    }
  ],
  "receipts": [
    {
      "status": "0x1",
      "cumulativeGasUsed": "0x5208",
      "logs": [],
      "logsBloom": "0x00000000000000000000000000000000000000000000000000000000000000000000000000000000000000000000000000000000000000000000000000000000000000000000000000000000000000000000000000000000000000000000000000000000000000000000000000000000000000000000000000000000000000000000000000000000000000000000000000000000000000000000000000000000000000000000000000000000000000000000000000000000000000000000000000000000000000000000000000000000000000000000000000000000000000000000000000000000000000000000000000000000000000000000000000000000",
      "type": "0x2",
      "transactionHash": "0xefe02ef545b1994fe056723595880d341d67d69ecf048e47ed9efd1078ba727d",
      "transactionIndex": "0x0",
      "blockHash": "0x13ad49cfdbb2f06b774340ad83e00600aef9cf625b71cbb0776def9f6ab300fa",
      "blockNumber": "0x2c1fe5d",
      "gasUsed": "0x5208",
      "effectiveGasPrice": "0xa2fb5e6f1",
      "blobGasPrice": "0x1",
      "from": "0xf39fd6e51aad88f6f4ce6ab8827279cfffb92266",
      "to": "0x760c3c9c5985e29cf4239fa1e938a19471393acd",
      "contractAddress": null
    },
    {
      "status": "0x1",
      "cumulativeGasUsed": "0x5208",
      "logs": [],
      "logsBloom": "0x00000000000000000000000000000000000000000000000000000000000000000000000000000000000000000000000000000000000000000000000000000000000000000000000000000000000000000000000000000000000000000000000000000000000000000000000000000000000000000000000000000000000000000000000000000000000000000000000000000000000000000000000000000000000000000000000000000000000000000000000000000000000000000000000000000000000000000000000000000000000000000000000000000000000000000000000000000000000000000000000000000000000000000000000000000000",
      "type": "0x2",
      "transactionHash": "0xda4fa01cf4e3cf5d67f4a889428fbdb97bc924dabbf51c591fd944be9ce65f7f",
      "transactionIndex": "0x0",
      "blockHash": "0x797081f10d80e33e712b5cdf2824946cb93f6b43c2b4e919d9a923f276042e87",
      "blockNumber": "0x2c1fe5e",
      "gasUsed": "0x5208",
      "effectiveGasPrice": "0x8e9bfdd85",
      "blobGasPrice": "0x1",
      "from": "0xf39fd6e51aad88f6f4ce6ab8827279cfffb92266",
      "to": "0xb16fd71f97f83e9813b61885c2f5b338b8322153",
      "contractAddress": null
    }
  ],
  "libraries": [],
  "pending": [],
  "returns": {},
  "timestamp": 1758554764916,
  "chain": 146,
  "commit": null
}