{
  "transactions": [
    {
      "hash": "0xce1857be4316e4c4e2506e167feb20e1b36f63d8de31381976a408e8c173ea40",
      "transactionType": "CALL",
      "contractName": null,
      "contractAddress": "0x760c3c9c5985e29cf4239fa1e938a19471393acd",
      "function": null,
      "arguments": null,
      "transaction": {
        "from": "0xf39fd6e51aad88f6f4ce6ab8827279cfffb92266",
        "to": "0x760c3c9c5985e29cf4239fa1e938a19471393acd",
        "gas": "0x714d",
        "value": "0x8ac7230489e80000",
        "input": "0x",
        "nonce": "0xa",
        "chainId": "0x92"
      },
      "additionalContracts": [],
      "isFixedGasLimit": false
    },
    {
      "hash": "0x6dcd233e442ad542eef98172bf656d1c0eba17cffb9bb5b9340f05a5bebd1331",
      "transactionType": "CALL",
      "contractName": null,
      "contractAddress": "0x6389f7083468a6005abfaf8126b688e9aede3ba9",
      "function": null,
      "arguments": null,
      "transaction": {
        "from": "0xf39fd6e51aad88f6f4ce6ab8827279cfffb92266",
        "to": "0x6389f7083468a6005abfaf8126b688e9aede3ba9",
        "gas": "0x714d",
        "value": "0x8ac7230489e80000",
        "input": "0x",
        "nonce": "0xb",
        "chainId": "0x92"
      },
      "additionalContracts": [],
      "isFixedGasLimit": false
    },
    {
      "hash": "0x497331cc307397c43d0b359d175c38547678832c5569e6d2f6b0d19c58a21956",
      "transactionType": "CALL",
      "contractName": null,
      "contractAddress": "0x83a6d8d9aa761e7e08ebe0ba5399970f9e8f61d9",
      "function": "transfer(address,uint256)",
      "arguments": [
        "0x760c3c9C5985E29cf4239FA1E938a19471393acd",
        "10000000000000000000000"
      ],
      "transaction": {
        "from": "0xab82b2ea6bb96d56b5996d9219d2bfd9d6943520",
        "to": "0x83a6d8d9aa761e7e08ebe0ba5399970f9e8f61d9",
        "gas": "0x11689",
        "value": "0x0",
        "input": "0xa9059cbb000000000000000000000000760c3c9c5985e29cf4239fa1e938a19471393acd00000000000000000000000000000000000000000000021e19e0c9bab2400000",
        "nonce": "0x1c",
        "chainId": "0x92"
      },
      "additionalContracts": [],
      "isFixedGasLimit": false
    },
    {
      "hash": "0x960a6f2f9808d41e51e1ded123acf0d62eece4019bee13ed0f4a5b1f7f3352fd",
      "transactionType": "CALL",
      "contractName": null,
      "contractAddress": "0xe5da20f15420ad15de0fa650600afc998bbe3955",
      "function": "transfer(address,uint256)",
      "arguments": [
        "0x6389f7083468A6005ABFAf8126b688E9AEde3BA9",
        "5100000000000000000000"
      ],
      "transaction": {
        "from": "0xdcf937feb1761df3ca3f1ce861c14d5e0acb148e",
        "to": "0xe5da20f15420ad15de0fa650600afc998bbe3955",
        "gas": "0x13167",
        "value": "0x0",
        "input": "0xa9059cbb0000000000000000000000006389f7083468a6005abfaf8126b688e9aede3ba900000000000000000000000000000000000000000000011478b7c30abc300000",
        "nonce": "0x4",
        "chainId": "0x92"
      },
      "additionalContracts": [],
      "isFixedGasLimit": false
    },
    {
      "hash": "0x6249fcf3ba3ef36a7ec1add18d4eca1eda384ded4d636e2aa6c220b39cb228a8",
      "transactionType": "CALL",
      "contractName": null,
      "contractAddress": "0x30047cca309b7aac3613ae5b990cf460253c9b98",
      "function": "_setMintPaused(address,bool)",
      "arguments": [
        "0x16d4b53DE6abA4B68480C7A3B6711DF25fcb12D7",
        "false"
      ],
      "transaction": {
        "from": "0xfc4b72fd6309d2e68b595c56eacb256d2fe9b881",
        "to": "0x30047cca309b7aac3613ae5b990cf460253c9b98",
        "gas": "0xd0f5",
        "value": "0x0",
        "input": "0x3bcf7ec100000000000000000000000016d4b53de6aba4b68480c7a3b6711df25fcb12d70000000000000000000000000000000000000000000000000000000000000000",
        "nonce": "0x1",
        "chainId": "0x92"
      },
      "additionalContracts": [],
      "isFixedGasLimit": false
    },
    {
      "hash": "0xe6fdb8e953f0b96a20ff060381b1035a6f870e0b0586702b72e7843f087f2c61",
      "transactionType": "CALL",
      "contractName": null,
      "contractAddress": "0x30047cca309b7aac3613ae5b990cf460253c9b98",
      "function": "_setBorrowPaused(address,bool)",
      "arguments": [
        "0xb2a43445B97cd6A179033788D763B8d0c0487E36",
        "false"
      ],
      "transaction": {
        "from": "0xfc4b72fd6309d2e68b595c56eacb256d2fe9b881",
        "to": "0x30047cca309b7aac3613ae5b990cf460253c9b98",
        "gas": "0xcf99",
        "value": "0x0",
        "input": "0x18c882a5000000000000000000000000b2a43445b97cd6a179033788d763b8d0c0487e360000000000000000000000000000000000000000000000000000000000000000",
        "nonce": "0x2",
        "chainId": "0x92"
      },
      "additionalContracts": [],
      "isFixedGasLimit": false
    },
    {
      "hash": "0x859049dbbbcd7586f36112407299a7ad53384b2251a91c2d08bc523e84cf7944",
      "transactionType": "CALL",
      "contractName": null,
      "contractAddress": "0xed84043cba395bd3eacec6b378e49cd66e94941d",
      "function": "unpause()",
      "arguments": [],
      "transaction": {
        "from": "0xfc4b72fd6309d2e68b595c56eacb256d2fe9b881",
        "to": "0xed84043cba395bd3eacec6b378e49cd66e94941d",
        "gas": "0xa0ad",
        "value": "0x0",
        "input": "0x3f4ba83a",
        "nonce": "0x3",
        "chainId": "0x92"
      },
      "additionalContracts": [],
      "isFixedGasLimit": false
    },
    {
      "hash": "0x8eb19b62475ef98aca877baf17e9021f1ade50a54e734b1ffb1ffcf097a4ac59",
      "transactionType": "CALL",
      "contractName": null,
      "contractAddress": "0x30047cca309b7aac3613ae5b990cf460253c9b98",
      "function": "enterMarkets(address[])",
      "arguments": [
        "[0x16d4b53DE6abA4B68480C7A3B6711DF25fcb12D7, 0xb2a43445B97cd6A179033788D763B8d0c0487E36]"
      ],
      "transaction": {
        "from": "0x760c3c9c5985e29cf4239fa1e938a19471393acd",
        "to": "0x30047cca309b7aac3613ae5b990cf460253c9b98",
        "gas": "0x358aa",
        "value": "0x0",
        "input": "0xc29982380000000000000000000000000000000000000000000000000000000000000020000000000000000000000000000000000000000000000000000000000000000200000000000000000000000016d4b53de6aba4b68480c7a3b6711df25fcb12d7000000000000000000000000b2a43445b97cd6a179033788d763b8d0c0487e36",
        "nonce": "0x0",
        "chainId": "0x92"
      },
      "additionalContracts": [],
      "isFixedGasLimit": false
    },
    {
      "hash": "0xde0a62897161c30ed0fbf7e64827d30de079b3594f518e71e1e0cb4f484fe7c5",
      "transactionType": "CALL",
      "contractName": null,
      "contractAddress": "0x83a6d8d9aa761e7e08ebe0ba5399970f9e8f61d9",
      "function": "approve(address,uint256)",
      "arguments": [
        "0x16d4b53DE6abA4B68480C7A3B6711DF25fcb12D7",
        "1000000000000000000000"
      ],
      "transaction": {
        "from": "0x760c3c9c5985e29cf4239fa1e938a19471393acd",
        "to": "0x83a6d8d9aa761e7e08ebe0ba5399970f9e8f61d9",
        "gas": "0x1094f",
        "value": "0x0",
        "input": "0x095ea7b300000000000000000000000016d4b53de6aba4b68480c7a3b6711df25fcb12d700000000000000000000000000000000000000000000003635c9adc5dea00000",
        "nonce": "0x1",
        "chainId": "0x92"
      },
      "additionalContracts": [],
      "isFixedGasLimit": false
    },
    {
      "hash": "0x9792064a789505a6b000587bc65bd6244f323a14dbb7d8ab6fdc43a72f23eaea",
      "transactionType": "CALL",
      "contractName": null,
      "contractAddress": "0x16d4b53de6aba4b68480c7a3b6711df25fcb12d7",
      "function": "mint(uint256)",
      "arguments": [
        "1000000000000000000000"
      ],
      "transaction": {
        "from": "0x760c3c9c5985e29cf4239fa1e938a19471393acd",
        "to": "0x16d4b53de6aba4b68480c7a3b6711df25fcb12d7",
        "gas": "0x2db19",
        "value": "0x0",
        "input": "0xa0712d6800000000000000000000000000000000000000000000003635c9adc5dea00000",
        "nonce": "0x2",
        "chainId": "0x92"
      },
      "additionalContracts": [],
      "isFixedGasLimit": false
    },
    {
      "hash": "0xb1ce4d04f255a72121d40c273a1d121e03a4340613e6006034702dd71c25f341",
      "transactionType": "CALL",
      "contractName": null,
      "contractAddress": "0xb2a43445b97cd6a179033788d763b8d0c0487e36",
      "function": "borrow(uint256)",
      "arguments": [
        "5000000000000000000000"
      ],
      "transaction": {
        "from": "0x760c3c9c5985e29cf4239fa1e938a19471393acd",
        "to": "0xb2a43445b97cd6a179033788d763b8d0c0487e36",
        "gas": "0x1350b1",
        "value": "0x0",
        "input": "0xc5ebeaec00000000000000000000000000000000000000000000010f0cf064dd59200000",
        "nonce": "0x3",
        "chainId": "0x92"
      },
      "additionalContracts": [],
      "isFixedGasLimit": false
    },
    {
      "hash": "0x240120f3580c02d37592243820eea9df647baac291eca459c2f62c6f18ec2b66",
      "transactionType": "CALL",
      "contractName": null,
      "contractAddress": "0xed84043cba395bd3eacec6b378e49cd66e94941d",
      "function": "updateWhitelist(address,bool)",
      "arguments": [
        "0x6389f7083468A6005ABFAf8126b688E9AEde3BA9",
        "true"
      ],
      "transaction": {
        "from": "0xfc4b72fd6309d2e68b595c56eacb256d2fe9b881",
        "to": "0xed84043cba395bd3eacec6b378e49cd66e94941d",
        "gas": "0x11050",
        "value": "0x0",
        "input": "0x0d392cd90000000000000000000000006389f7083468a6005abfaf8126b688e9aede3ba90000000000000000000000000000000000000000000000000000000000000001",
        "nonce": "0x4",
        "chainId": "0x92"
      },
      "additionalContracts": [],
      "isFixedGasLimit": false
    }
  ],
  "receipts": [
    {
      "status": "0x1",
      "cumulativeGasUsed": "0x5208",
      "logs": [],
      "logsBloom": "0x00000000000000000000000000000000000000000000000000000000000000000000000000000000000000000000000000000000000000000000000000000000000000000000000000000000000000000000000000000000000000000000000000000000000000000000000000000000000000000000000000000000000000000000000000000000000000000000000000000000000000000000000000000000000000000000000000000000000000000000000000000000000000000000000000000000000000000000000000000000000000000000000000000000000000000000000000000000000000000000000000000000000000000000000000000000",
      "type": "0x2",
      "transactionHash": "0xce1857be4316e4c4e2506e167feb20e1b36f63d8de31381976a408e8c173ea40",
      "transactionIndex": "0x0",
      "blockHash": "0x2eb32da390cb3b680d80b2a762456562a50fe29c062e84b9fc06c1eac06fd6c0",
      "blockNumber": "0x2c1fe61",
      "gasUsed": "0x5208",
      "effectiveGasPrice": "0x5f899718c",
      "blobGasPrice": "0x1",
      "from": "0xf39fd6e51aad88f6f4ce6ab8827279cfffb92266",
      "to": "0x760c3c9c5985e29cf4239fa1e938a19471393acd",
      "contractAddress": null
    },
    {
      "status": "0x1",
      "cumulativeGasUsed": "0x5208",
      "logs": [],
      "logsBloom": "0x00000000000000000000000000000000000000000000000000000000000000000000000000000000000000000000000000000000000000000000000000000000000000000000000000000000000000000000000000000000000000000000000000000000000000000000000000000000000000000000000000000000000000000000000000000000000000000000000000000000000000000000000000000000000000000000000000000000000000000000000000000000000000000000000000000000000000000000000000000000000000000000000000000000000000000000000000000000000000000000000000000000000000000000000000000000",
      "type": "0x2",
      "transactionHash": "0x6dcd233e442ad542eef98172bf656d1c0eba17cffb9bb5b9340f05a5bebd1331",
      "transactionIndex": "0x0",
      "blockHash": "0xca898adbf1ee6d15c2488a1648cf291e09eff990633e8dce94eda1ce23ce6ca7",
      "blockNumber": "0x2c1fe62",
      "gasUsed": "0x5208",
      "effectiveGasPrice": "0x53986ac8b",
      "blobGasPrice": "0x1",
      "from": "0xf39fd6e51aad88f6f4ce6ab8827279cfffb92266",
      "to": "0x6389f7083468a6005abfaf8126b688e9aede3ba9",
      "contractAddress": null
    },
    {
      "status": "0x1",
      "cumulativeGasUsed": "0xc9a8",
      "logs": [
        {
          "address": "0x83a6d8d9aa761e7e08ebe0ba5399970f9e8f61d9",
          "topics": [
            "0xddf252ad1be2c89b69c2b068fc378daa952ba7f163c4a11628f55a4df523b3ef",
            "0x000000000000000000000000ab82b2ea6bb96d56b5996d9219d2bfd9d6943520",
            "0x000000000000000000000000760c3c9c5985e29cf4239fa1e938a19471393acd"
          ],
          "data": "0x00000000000000000000000000000000000000000000021e19e0c9bab2400000",
          "blockHash": "0x4085b0d1c04516cf331cf2ed2b42d783d71efb0c59efa0ab2d6e8ae1d22ca9a5",
          "blockNumber": "0x2c1fe63",
          "blockTimestamp": "0x68c02dd3",
          "transactionHash": "0x497331cc307397c43d0b359d175c38547678832c5569e6d2f6b0d19c58a21956",
          "transactionIndex": "0x0",
          "logIndex": "0x0",
          "removed": false
        }
      ],
      "logsBloom": "0x00000000000000000000000008000010000000000000000000000000000000000000000000000000000000000000000000000000000000000000000000000000000000000000000000000008000000000400000000000000000000000020000400000000000000000000000000000000000000000000000000100010000000004000000000000000000000000000000000000000000000000000000000000000000000000020000000000000000000000000000000000000000000000000000000000002000000000200000000000000000000000000000000000000000000000000000000000000000000000000000000000000000000000000000000000000",
      "type": "0x2",
      "transactionHash": "0x497331cc307397c43d0b359d175c38547678832c5569e6d2f6b0d19c58a21956",
      "transactionIndex": "0x0",
      "blockHash": "0x4085b0d1c04516cf331cf2ed2b42d783d71efb0c59efa0ab2d6e8ae1d22ca9a5",
      "blockNumber": "0x2c1fe63",
      "gasUsed": "0xc9a8",
      "effectiveGasPrice": "0x492563304",
      "blobGasPrice": "0x1",
      "from": "0xab82b2ea6bb96d56b5996d9219d2bfd9d6943520",
      "to": "0x83a6d8d9aa761e7e08ebe0ba5399970f9e8f61d9",
      "contractAddress": null
    },
    {
      "status": "0x1",
      "cumulativeGasUsed": "0xdd1c",
      "logs": [
        {
          "address": "0xe5da20f15420ad15de0fa650600afc998bbe3955",
          "topics": [
            "0xddf252ad1be2c89b69c2b068fc378daa952ba7f163c4a11628f55a4df523b3ef",
            "0x000000000000000000000000dcf937feb1761df3ca3f1ce861c14d5e0acb148e",
            "0x0000000000000000000000006389f7083468a6005abfaf8126b688e9aede3ba9"
          ],
          "data": "0x00000000000000000000000000000000000000000000011478b7c30abc300000",
          "blockHash": "0xfb200b9158b5b972b5015825d3879b36c8664a21df115ffccb53d72a56c6aa7d",
          "blockNumber": "0x2c1fe64",
          "blockTimestamp": "0x68c02dd3",
          "transactionHash": "0x960a6f2f9808d41e51e1ded123acf0d62eece4019bee13ed0f4a5b1f7f3352fd",
          "transactionIndex": "0x0",
          "logIndex": "0x0",
          "removed": false
        }
      ],
      "logsBloom": "0x00000000000000000000000000400000000000000000000000000000000000002000000000200000000100000000000000000000000000000000000000000000000000000000000000000008000080000000000000000000000000000000000000000000000000000000004000000000000002000000000000000010000000000000000000000000000000000004000000000000000000000000000000000000000000000000000000000000000000000000000000000000000000000000000000000002000000000000000000000000000000000000000000000000000000000000000000000000000000000000000000000400000000000000000000000000",
      "type": "0x2",
      "transactionHash": "0x960a6f2f9808d41e51e1ded123acf0d62eece4019bee13ed0f4a5b1f7f3352fd",
      "transactionIndex": "0x0",
      "blockHash": "0xfb200b9158b5b972b5015825d3879b36c8664a21df115ffccb53d72a56c6aa7d",
      "blockNumber": "0x2c1fe64",
      "gasUsed": "0xdd1c",
      "effectiveGasPrice": "0x4000c329e",
      "blobGasPrice": "0x1",
      "from": "0xdcf937feb1761df3ca3f1ce861c14d5e0acb148e",
      "to": "0xe5da20f15420ad15de0fa650600afc998bbe3955",
      "contractAddress": null
    },
    {
      "status": "0x1",
      "cumulativeGasUsed": "0x8ee1",
      "logs": [
        {
          "address": "0x30047cca309b7aac3613ae5b990cf460253c9b98",
          "topics": [
            "0x71aec636243f9709bb0007ae15e9afb8150ab01716d75fd7573be5cc096e03b0"
          ],
          "data": "0x00000000000000000000000016d4b53de6aba4b68480c7a3b6711df25fcb12d70000000000000000000000000000000000000000000000000000000000000060000000000000000000000000000000000000000000000000000000000000000000000000000000000000000000000000000000000000000000000000000000044d696e7400000000000000000000000000000000000000000000000000000000",
          "blockHash": "0xba8cf8db674ee2b6f08f6ef11b8bbbb03b07c0dfb3653da6a179a7faa4ff5c46",
          "blockNumber": "0x2c1fe65",
          "blockTimestamp": "0x68c02dd3",
          "transactionHash": "0x6249fcf3ba3ef36a7ec1add18d4eca1eda384ded4d636e2aa6c220b39cb228a8",
          "transactionIndex": "0x0",
          "logIndex": "0x0",
          "removed": false
        }
      ],
      "logsBloom": "0x00000000000000000000000000000000000000000000000000000000000000000000000000000000000000000000000000000000000000000000000000000000000000000000000000000000000000000000000000001000000000000000000000000000000000000004000000000000000000000000000000000000000000000000000000000000000000000000000000000000000800000000000000000000400000000000001000000000000000000000000000000000000000000000000000000000000000000000000000000000000000000000000000000000000000020000000000000000000000000000000000000000000000000000000000000000",
      "type": "0x2",
      "transactionHash": "0x6249fcf3ba3ef36a7ec1add18d4eca1eda384ded4d636e2aa6c220b39cb228a8",
      "transactionIndex": "0x0",
      "blockHash": "0xba8cf8db674ee2b6f08f6ef11b8bbbb03b07c0dfb3653da6a179a7faa4ff5c46",
      "blockNumber": "0x2c1fe65",
      "gasUsed": "0x8ee1",
      "effectiveGasPrice": "0x3800b6a3c",
      "blobGasPrice": "0x1",
      "from": "0xfc4b72fd6309d2e68b595c56eacb256d2fe9b881",
      "to": "0x30047cca309b7aac3613ae5b990cf460253c9b98",
      "contractAddress": null
    },
    {
      "status": "0x1",
      "cumulativeGasUsed": "0x8df3",
      "logs": [
        {
          "address": "0x30047cca309b7aac3613ae5b990cf460253c9b98",
          "topics": [
            "0x71aec636243f9709bb0007ae15e9afb8150ab01716d75fd7573be5cc096e03b0"
          ],
          "data": "0x000000000000000000000000b2a43445b97cd6a179033788d763b8d0c0487e36000000000000000000000000000000000000000000000000000000000000006000000000000000000000000000000000000000000000000000000000000000000000000000000000000000000000000000000000000000000000000000000006426f72726f770000000000000000000000000000000000000000000000000000",
          "blockHash": "0xec1c311d21e3e89b92e784839995b3ad4bb1ba291fba7b50fdbcd155e6a507fd",
          "blockNumber": "0x2c1fe66",
          "blockTimestamp": "0x68c02dd3",
          "transactionHash": "0xe6fdb8e953f0b96a20ff060381b1035a6f870e0b0586702b72e7843f087f2c61",
          "transactionIndex": "0x0",
          "logIndex": "0x0",
          "removed": false
        }
      ],
      "logsBloom": "0x00000000000000000000000000000000000000000000000000000000000000000000000000000000000000000000000000000000000000000000000000000000000000000000000000000000000000000000000000001000000000000000000000000000000000000004000000000000000000000000000000000000000000000000000000000000000000000000000000000000000800000000000000000000400000000000001000000000000000000000000000000000000000000000000000000000000000000000000000000000000000000000000000000000000000020000000000000000000000000000000000000000000000000000000000000000",
      "type": "0x2",
      "transactionHash": "0xe6fdb8e953f0b96a20ff060381b1035a6f870e0b0586702b72e7843f087f2c61",
      "transactionIndex": "0x0",
      "blockHash": "0xec1c311d21e3e89b92e784839995b3ad4bb1ba291fba7b50fdbcd155e6a507fd",
      "blockNumber": "0x2c1fe66",
      "gasUsed": "0x8df3",
      "effectiveGasPrice": "0x3100a685a",
      "blobGasPrice": "0x1",
      "from": "0xfc4b72fd6309d2e68b595c56eacb256d2fe9b881",
      "to": "0x30047cca309b7aac3613ae5b990cf460253c9b98",
      "contractAddress": null
    },
    {
      "status": "0x1",
      "cumulativeGasUsed": "0x7454",
      "logs": [
        {
          "address": "0xed84043cba395bd3eacec6b378e49cd66e94941d",
          "topics": [
            "0x5db9ee0a495bf2e6ff9c91a7834c1ba4fdd244a5e8aa4e537bd38aeae4b073aa"
          ],
          "data": "0x000000000000000000000000fc4b72fd6309d2e68b595c56eacb256d2fe9b881",
          "blockHash": "0x5f2e32624959e4ca15b99e1fbb5af8184ca40d1a7d564fdf300d0c20c8521261",
          "blockNumber": "0x2c1fe67",
          "blockTimestamp": "0x68c02dd3",
          "transactionHash": "0x859049dbbbcd7586f36112407299a7ad53384b2251a91c2d08bc523e84cf7944",
          "transactionIndex": "0x0",
          "logIndex": "0x0",
          "removed": false
        }
      ],
      "logsBloom": "0x00000000000000000000000000000000000000000000000080100000000000000000000000000000000000000000000000000000000000000000000000000000000000000000000000000000000000000000000000000000000000008000000000000000000000000000000000000000000000000000000000000000000000000000000000000000000000000000000000000000000000000000000000000000000000000000000000000000000000000000000000000000200000000000000000000000000000000000000000000000000008000000000000000000000000000000000000000000000000000000000000000000000000000000000000000400",
      "type": "0x2",
      "transactionHash": "0x859049dbbbcd7586f36112407299a7ad53384b2251a91c2d08bc523e84cf7944",
      "transactionIndex": "0x0",
      "blockHash": "0x5f2e32624959e4ca15b99e1fbb5af8184ca40d1a7d564fdf300d0c20c8521261",
      "blockNumber": "0x2c1fe67",
      "gasUsed": "0x7454",
      "effectiveGasPrice": "0x2ae0978ac",
      "blobGasPrice": "0x1",
      "from": "0xfc4b72fd6309d2e68b595c56eacb256d2fe9b881",
      "to": "0xed84043cba395bd3eacec6b378e49cd66e94941d",
      "contractAddress": null
    },
    {
      "status": "0x1",
      "cumulativeGasUsed": "0x249c1",
      "logs": [
        {
          "address": "0x30047cca309b7aac3613ae5b990cf460253c9b98",
          "topics": [
            "0x3ab23ab0d51cccc0c3085aec51f99228625aa1a922b3a8ca89a26b0f2027a1a5"
          ],
          "data": "0x00000000000000000000000016d4b53de6aba4b68480c7a3b6711df25fcb12d7000000000000000000000000760c3c9c5985e29cf4239fa1e938a19471393acd",
          "blockHash": "0x6d1d69db8cbe1cf8608e45a1a2e0caaf7f8503184b793dd523b1f319412622b0",
          "blockNumber": "0x2c1fe68",
          "blockTimestamp": "0x68c02dd3",
          "transactionHash": "0x8eb19b62475ef98aca877baf17e9021f1ade50a54e734b1ffb1ffcf097a4ac59",
          "transactionIndex": "0x0",
          "logIndex": "0x0",
          "removed": false
        },
        {
          "address": "0x30047cca309b7aac3613ae5b990cf460253c9b98",
          "topics": [
            "0x3ab23ab0d51cccc0c3085aec51f99228625aa1a922b3a8ca89a26b0f2027a1a5"
          ],
          "data": "0x000000000000000000000000b2a43445b97cd6a179033788d763b8d0c0487e36000000000000000000000000760c3c9c5985e29cf4239fa1e938a19471393acd",
          "blockHash": "0x6d1d69db8cbe1cf8608e45a1a2e0caaf7f8503184b793dd523b1f319412622b0",
          "blockNumber": "0x2c1fe68",
          "blockTimestamp": "0x68c02dd3",
          "transactionHash": "0x8eb19b62475ef98aca877baf17e9021f1ade50a54e734b1ffb1ffcf097a4ac59",
          "transactionIndex": "0x0",
          "logIndex": "0x1",
          "removed": false
        }
      ],
      "logsBloom": "0x00000000000000000000000000000000000000000000000000000000000000000000000000000000000000000000000000000000010000010000000000000000000000000000000000000000000000000000000000000000000000000000000000000000000000000004000000000000000000000010000000000000000000000000000000000000000000000000000000000000000000000000000000000000400000000000000000000000000000000000000000000000000000000000000000000000000000000000000000000000000000000000000000000000000000020000000000000000000000000000000000000000000000000000000000000000",
      "type": "0x2",
      "transactionHash": "0x8eb19b62475ef98aca877baf17e9021f1ade50a54e734b1ffb1ffcf097a4ac59",
      "transactionIndex": "0x0",
      "blockHash": "0x6d1d69db8cbe1cf8608e45a1a2e0caaf7f8503184b793dd523b1f319412622b0",
      "blockNumber": "0x2c1fe68",
      "gasUsed": "0x249c1",
      "effectiveGasPrice": "0x258488c89",
      "blobGasPrice": "0x1",
      "from": "0x760c3c9c5985e29cf4239fa1e938a19471393acd",
      "to": "0x30047cca309b7aac3613ae5b990cf460253c9b98",
      "contractAddress": null
    },
    {
      "status": "0x1",
      "cumulativeGasUsed": "0xb569",
      "logs": [
        {
          "address": "0x83a6d8d9aa761e7e08ebe0ba5399970f9e8f61d9",
          "topics": [
            "0x8c5be1e5ebec7d5bd14f71427d1e84f3dd0314c0f7b2291e5b200ac8c7c3b925",
            "0x000000000000000000000000760c3c9c5985e29cf4239fa1e938a19471393acd",
            "0x00000000000000000000000016d4b53de6aba4b68480c7a3b6711df25fcb12d7"
          ],
          "data": "0x00000000000000000000000000000000000000000000003635c9adc5dea00000",
          "blockHash": "0x3008a0535367b546620450b6c7ef3cf7f36e8f3e29a11a52b3f1260ec492f829",
          "blockNumber": "0x2c1fe69",
          "blockTimestamp": "0x68c02dd3",
          "transactionHash": "0xde0a62897161c30ed0fbf7e64827d30de079b3594f518e71e1e0cb4f484fe7c5",
          "transactionIndex": "0x0",
          "logIndex": "0x0",
          "removed": false
        }
      ],
      "logsBloom": "0x00000000000000000000000000000010000000000000000000000000000000000000000000000000000000000000000000000000000000000000000000200080000000000000000000000000000000000400000000000000000000000020000400000000000000000000000000000000000000000000000000100000000000000000000000000000000000000000000000000000000000004000000000000000020000000000000000000000000000000000000000000000000000000000000000000000000000000200000000000000000000000000000000020000000000000010000000000000000000000000000000000000000000000000000000000000",
      "type": "0x2",
      "transactionHash": "0xde0a62897161c30ed0fbf7e64827d30de079b3594f518e71e1e0cb4f484fe7c5",
      "transactionIndex": "0x0",
      "blockHash": "0x3008a0535367b546620450b6c7ef3cf7f36e8f3e29a11a52b3f1260ec492f829",
      "blockNumber": "0x2c1fe69",
      "gasUsed": "0xb569",
      "effectiveGasPrice": "0x20d40a1ee",
      "blobGasPrice": "0x1",
      "from": "0x760c3c9c5985e29cf4239fa1e938a19471393acd",
      "to": "0x83a6d8d9aa761e7e08ebe0ba5399970f9e8f61d9",
      "contractAddress": null
    },
    {
      "status": "0x1",
      "cumulativeGasUsed": "0x2114e",
      "logs": [
        {
          "address": "0x16d4b53de6aba4b68480c7a3b6711df25fcb12d7",
          "topics": [
            "0x4dec04e750ca11537cabcd8a9eab06494de08da3735bc8871cd41250e190bc04"
          ],
          "data": "0x000000000000000000000000000000000000000000000b7f946bcf52ee95e4d600000000000000000000000000000000000000000000000000000000000000000000000000000000000000000000000000000000000000000de0b6b3a76400000000000000000000000000000000000000000000000000000000000000000000",
          "blockHash": "0xcada9e7f7273c55504bdd8e4869d484835c9f8f3869ca19bee6b24c23b632d51",
          "blockNumber": "0x2c1fe6a",
          "blockTimestamp": "0x68c02dd3",
          "transactionHash": "0x9792064a789505a6b000587bc65bd6244f323a14dbb7d8ab6fdc43a72f23eaea",
          "transactionIndex": "0x0",
          "logIndex": "0x0",
          "removed": false
        },
        {
          "address": "0x83a6d8d9aa761e7e08ebe0ba5399970f9e8f61d9",
          "topics": [
            "0xddf252ad1be2c89b69c2b068fc378daa952ba7f163c4a11628f55a4df523b3ef",
            "0x000000000000000000000000760c3c9c5985e29cf4239fa1e938a19471393acd",
            "0x00000000000000000000000016d4b53de6aba4b68480c7a3b6711df25fcb12d7"
          ],
          "data": "0x00000000000000000000000000000000000000000000003635c9adc5dea00000",
          "blockHash": "0xcada9e7f7273c55504bdd8e4869d484835c9f8f3869ca19bee6b24c23b632d51",
          "blockNumber": "0x2c1fe6a",
          "blockTimestamp": "0x68c02dd3",
          "transactionHash": "0x9792064a789505a6b000587bc65bd6244f323a14dbb7d8ab6fdc43a72f23eaea",
          "transactionIndex": "0x0",
          "logIndex": "0x1",
          "removed": false
        },
        {
          "address": "0x16d4b53de6aba4b68480c7a3b6711df25fcb12d7",
          "topics": [
            "0x4c209b5fc8ad50758f13e2e1088ba56a560dff690a1c6fef26394f4c03821c4f"
          ],
          "data": "0x000000000000000000000000760c3c9c5985e29cf4239fa1e938a19471393acd00000000000000000000000000000000000000000000003635c9adc5dea000000000000000000000000000000000000000000000000000000000048c27394ffe",
          "blockHash": "0xcada9e7f7273c55504bdd8e4869d484835c9f8f3869ca19bee6b24c23b632d51",
          "blockNumber": "0x2c1fe6a",
          "blockTimestamp": "0x68c02dd3",
          "transactionHash": "0x9792064a789505a6b000587bc65bd6244f323a14dbb7d8ab6fdc43a72f23eaea",
          "transactionIndex": "0x0",
          "logIndex": "0x2",
          "removed": false
        },
        {
          "address": "0x16d4b53de6aba4b68480c7a3b6711df25fcb12d7",
          "topics": [
            "0xddf252ad1be2c89b69c2b068fc378daa952ba7f163c4a11628f55a4df523b3ef",
            "0x00000000000000000000000016d4b53de6aba4b68480c7a3b6711df25fcb12d7",
            "0x000000000000000000000000760c3c9c5985e29cf4239fa1e938a19471393acd"
          ],
          "data": "0x0000000000000000000000000000000000000000000000000000048c27394ffe",
          "blockHash": "0xcada9e7f7273c55504bdd8e4869d484835c9f8f3869ca19bee6b24c23b632d51",
          "blockNumber": "0x2c1fe6a",
          "blockTimestamp": "0x68c02dd3",
          "transactionHash": "0x9792064a789505a6b000587bc65bd6244f323a14dbb7d8ab6fdc43a72f23eaea",
          "transactionIndex": "0x0",
          "logIndex": "0x3",
          "removed": false
        }
      ],
      "logsBloom": "0x00000000000000000000000000000010000000000000400000000000000001000000000000000000000000000000000000000000020000000000000000000080000000000000000000000008000000000400000000000010000000000020000400000000000000000000000000000000000000000008000000100010000000000000000000000000000000000400000000000000000000004000000000000080000000000000000000000000000000000000000000000000000000000000000000000002000000000200000000020000000000000000000000020000000000000000000000000000000000000000000000200000000000000000000000000000",
      "type": "0x2",
      "transactionHash": "0x9792064a789505a6b000587bc65bd6244f323a14dbb7d8ab6fdc43a72f23eaea",
      "transactionIndex": "0x0",
      "blockHash": "0xcada9e7f7273c55504bdd8e4869d484835c9f8f3869ca19bee6b24c23b632d51",
      "blockNumber": "0x2c1fe6a",
      "gasUsed": "0x2114e",
      "effectiveGasPrice": "0x1cb98dd9f",
      "blobGasPrice": "0x1",
      "from": "0x760c3c9c5985e29cf4239fa1e938a19471393acd",
      "to": "0x16d4b53de6aba4b68480c7a3b6711df25fcb12d7",
      "contractAddress": null
    },
    {
      "status": "0x1",
      "cumulativeGasUsed": "0xdfbdf",
      "logs": [
        {
          "address": "0xb2a43445b97cd6a179033788d763b8d0c0487e36",
          "topics": [
            "0x4dec04e750ca11537cabcd8a9eab06494de08da3735bc8871cd41250e190bc04"
          ],
          "data": "0x00000000000000000000000000000000000000000000b9e19ada0a10c8ff3b0f00000000000000000000000000000000000000000000000000000000000000000000000000000000000000000000000000000000000000000de0b6b3a76400000000000000000000000000000000000000000000000085e2921500f43ae9148f",
          "blockHash": "0x49f0485987f486ae3b2a7846336508bb0db3ff778dd7cf8d17edf6a0eb7e67b6",
          "blockNumber": "0x2c1fe6b",
          "blockTimestamp": "0x68c02dd3",
          "transactionHash": "0xb1ce4d04f255a72121d40c273a1d121e03a4340613e6006034702dd71c25f341",
          "transactionIndex": "0x0",
          "logIndex": "0x0",
          "removed": false
        },
        {
          "address": "0xe5da20f15420ad15de0fa650600afc998bbe3955",
          "topics": [
            "0xddf252ad1be2c89b69c2b068fc378daa952ba7f163c4a11628f55a4df523b3ef",
            "0x000000000000000000000000ed84043cba395bd3eacec6b378e49cd66e94941d",
            "0x000000000000000000000000b2a43445b97cd6a179033788d763b8d0c0487e36"
          ],
          "data": "0x00000000000000000000000000000000000000000000010f0cf064dd59200000",
          "blockHash": "0x49f0485987f486ae3b2a7846336508bb0db3ff778dd7cf8d17edf6a0eb7e67b6",
          "blockNumber": "0x2c1fe6b",
          "blockTimestamp": "0x68c02dd3",
          "transactionHash": "0xb1ce4d04f255a72121d40c273a1d121e03a4340613e6006034702dd71c25f341",
          "transactionIndex": "0x0",
          "logIndex": "0x1",
          "removed": false
        },
        {
          "address": "0xed84043cba395bd3eacec6b378e49cd66e94941d",
          "topics": [
            "0xeb4c69d43332aa08f82f73cb19c169a68ec508a9e2e758868a1b4e078ed15059"
          ],
          "data": "0x00000000000000000000000000000000000000000000010f0cf064dd59200000",
          "blockHash": "0x49f0485987f486ae3b2a7846336508bb0db3ff778dd7cf8d17edf6a0eb7e67b6",
          "blockNumber": "0x2c1fe6b",
          "blockTimestamp": "0x68c02dd3",
          "transactionHash": "0xb1ce4d04f255a72121d40c273a1d121e03a4340613e6006034702dd71c25f341",
          "transactionIndex": "0x0",
          "logIndex": "0x2",
          "removed": false
        },
        {
          "address": "0xb2a43445b97cd6a179033788d763b8d0c0487e36",
          "topics": [
            "0x13ed6866d4e1ee6da46f845c46d7e54120883d75c5ea9a2dacc1c4ca8984ab80"
          ],
          "data": "0x000000000000000000000000760c3c9c5985e29cf4239fa1e938a19471393acd00000000000000000000000000000000000000000000010f0cf064dd5920000000000000000000000000000000000000000000000000010f0cf064dd592000000000000000000000000000000000000000000000000086f19f0565d19409148f",
          "blockHash": "0x49f0485987f486ae3b2a7846336508bb0db3ff778dd7cf8d17edf6a0eb7e67b6",
          "blockNumber": "0x2c1fe6b",
          "blockTimestamp": "0x68c02dd3",
          "transactionHash": "0xb1ce4d04f255a72121d40c273a1d121e03a4340613e6006034702dd71c25f341",
          "transactionIndex": "0x0",
          "logIndex": "0x3",
          "removed": false
        },
        {
          "address": "0xe5da20f15420ad15de0fa650600afc998bbe3955",
          "topics": [
            "0xddf252ad1be2c89b69c2b068fc378daa952ba7f163c4a11628f55a4df523b3ef",
            "0x000000000000000000000000b2a43445b97cd6a179033788d763b8d0c0487e36",
            "0x000000000000000000000000760c3c9c5985e29cf4239fa1e938a19471393acd"
          ],
          "data": "0x00000000000000000000000000000000000000000000010f0cf064dd59200000",
          "blockHash": "0x49f0485987f486ae3b2a7846336508bb0db3ff778dd7cf8d17edf6a0eb7e67b6",
          "blockNumber": "0x2c1fe6b",
          "blockTimestamp": "0x68c02dd3",
          "transactionHash": "0xb1ce4d04f255a72121d40c273a1d121e03a4340613e6006034702dd71c25f341",
          "transactionIndex": "0x0",
          "logIndex": "0x4",
          "removed": false
        }
      ],
      "logsBloom": "0x00000000200000000000000000000010000000000000400000100000000000000000000000009000000100000000000000000000000000000000800000000000000000000000000000000008000000000000000000020000000000000000010440000000000000000000000000000000000002000000000000140010000000000002003000000000000000000000000000000000000000000000000000000080000000000000000000000000000000000000000000000000200000000000000000000002000000080000000000000800000008000000002000000000000000000000000000000000000000000000000000200402000000000000000000000000",
      "type": "0x2",
      "transactionHash": "0xb1ce4d04f255a72121d40c273a1d121e03a4340613e6006034702dd71c25f341",
      "transactionIndex": "0x0",
      "blockHash": "0x49f0485987f486ae3b2a7846336508bb0db3ff778dd7cf8d17edf6a0eb7e67b6",
      "blockNumber": "0x2c1fe6b",
      "gasUsed": "0xdfbdf",
      "effectiveGasPrice": "0x192268dfd",
      "blobGasPrice": "0x1",
      "from": "0x760c3c9c5985e29cf4239fa1e938a19471393acd",
      "to": "0xb2a43445b97cd6a179033788d763b8d0c0487e36",
      "contractAddress": null
    },
    {
      "status": "0x1",
      "cumulativeGasUsed": "0xba33",
      "logs": [
        {
          "address": "0xed84043cba395bd3eacec6b378e49cd66e94941d",
          "topics": [
            "0xf93f9a76c1bf3444d22400a00cb9fe990e6abe9dbb333fda48859cfee864543d",
            "0x0000000000000000000000006389f7083468a6005abfaf8126b688e9aede3ba9"
          ],
          "data": "0x0000000000000000000000000000000000000000000000000000000000000001",
          "blockHash": "0xab4663b400bafefd79dd408767cec30f7cb5c11c4247ecc1690e3b4c82d1c266",
          "blockNumber": "0x2c1fe6c",
          "blockTimestamp": "0x68c02dd4",
          "transactionHash": "0x240120f3580c02d37592243820eea9df647baac291eca459c2f62c6f18ec2b66",
          "transactionIndex": "0x0",
          "logIndex": "0x0",
          "removed": false
        }
      ],
      "logsBloom": "0x00000000000000000000000000000000000000000000000000100000000000000000000000200000000000000000000000000000000000000000000000000000000000000000000000000000000080000000000000000000000000000000000000000001000000000000000000000000000000000000000000000000000000000000000000000000000000000004000000000000000000000000000000000000000000000000000000000000000000000000000000000000200000000000000000000000000000000000000000000000000008000000000000000000000000000000000000000000000000000000040000000000002000000000000000000000",
      "type": "0x2",
      "transactionHash": "0x240120f3580c02d37592243820eea9df647baac291eca459c2f62c6f18ec2b66",
      "transactionIndex": "0x0",
      "blockHash": "0xab4663b400bafefd79dd408767cec30f7cb5c11c4247ecc1690e3b4c82d1c266",
      "blockNumber": "0x2c1fe6c",
      "gasUsed": "0xba33",
      "effectiveGasPrice": "0x15fe673e8",
      "blobGasPrice": "0x1",
      "from": "0xfc4b72fd6309d2e68b595c56eacb256d2fe9b881",
      "to": "0xed84043cba395bd3eacec6b378e49cd66e94941d",
      "contractAddress": null
    }
  ],
  "libraries": [],
  "pending": [],
  "returns": {},
  "timestamp": 1758555770123,
  "chain": 146,
  "commit": null
}