{
  "transactions": [
    {
      "hash": "0x7813da2fd8cb33e557422e70fd6a4fcbb4756ca8f9943550b3592df607f251ba",
      "transactionType": "CALL",
      "contractName": null,
      "contractAddress": "0x760c3c9c5985e29cf4239fa1e938a19471393acd",
      "function": null,
      "arguments": null,
      "transaction": {
        "from": "0xf39fd6e51aad88f6f4ce6ab8827279cfffb92266",
        "to": "0x760c3c9c5985e29cf4239fa1e938a19471393acd",
        "gas": "0x714d",
        "value": "0x8ac7230489e80000",
        "input": "0x",
        "nonce": "0xc",
        "chainId": "0x92"
      },
      "additionalContracts": [],
      "isFixedGasLimit": false
    },
    {
      "hash": "0x547a55defe452f8345cbd8acf2fe0dbbb2075da7c1869b8300cf3764985b0c62",
      "transactionType": "CALL",
      "contractName": null,
      "contractAddress": "0x6389f7083468a6005abfaf8126b688e9aede3ba9",
      "function": null,
      "arguments": null,
      "transaction": {
        "from": "0xf39fd6e51aad88f6f4ce6ab8827279cfffb92266",
        "to": "0x6389f7083468a6005abfaf8126b688e9aede3ba9",
        "gas": "0x714d",
        "value": "0x8ac7230489e80000",
        "input": "0x",
        "nonce": "0xd",
        "chainId": "0x92"
      },
      "additionalContracts": [],
      "isFixedGasLimit": false
    },
    {
      "hash": null,
      "transactionType": "CALL",
      "contractName": null,
      "contractAddress": "0x83a6d8d9aa761e7e08ebe0ba5399970f9e8f61d9",
      "function": "transfer(address,uint256)",
      "arguments": [
        "0x760c3c9C5985E29cf4239FA1E938a19471393acd",
        "10000000000000000000000"
      ],
      "transaction": {
        "from": "0xab82b2ea6bb96d56b5996d9219d2bfd9d6943520",
        "to": "0x83a6d8d9aa761e7e08ebe0ba5399970f9e8f61d9",
        "gas": "0x11689",
        "value": "0x0",
        "input": "0xa9059cbb000000000000000000000000760c3c9c5985e29cf4239fa1e938a19471393acd00000000000000000000000000000000000000000000021e19e0c9bab2400000",
        "nonce": "0x0",
        "chainId": "0x92"
      },
      "additionalContracts": [],
      "isFixedGasLimit": false
    },
    {
      "hash": null,
      "transactionType": "CALL",
      "contractName": null,
      "contractAddress": "0xe5da20f15420ad15de0fa650600afc998bbe3955",
      "function": "transfer(address,uint256)",
      "arguments": [
        "0x6389f7083468A6005ABFAf8126b688E9AEde3BA9",
        "5100000000000000000000"
      ],
      "transaction": {
        "from": "0xdcf937feb1761df3ca3f1ce861c14d5e0acb148e",
        "to": "0xe5da20f15420ad15de0fa650600afc998bbe3955",
        "gas": "0x13167",
        "value": "0x0",
        "input": "0xa9059cbb0000000000000000000000006389f7083468a6005abfaf8126b688e9aede3ba900000000000000000000000000000000000000000000011478b7c30abc300000",
        "nonce": "0x0",
        "chainId": "0x92"
      },
      "additionalContracts": [],
      "isFixedGasLimit": false
    },
    {
      "hash": null,
      "transactionType": "CALL",
      "contractName": null,
      "contractAddress": "0x30047cca309b7aac3613ae5b990cf460253c9b98",
      "function": "_setMintPaused(address,bool)",
      "arguments": [
        "0x16d4b53DE6abA4B68480C7A3B6711DF25fcb12D7",
        "false"
      ],
      "transaction": {
        "from": "0xfc4b72fd6309d2e68b595c56eacb256d2fe9b881",
        "to": "0x30047cca309b7aac3613ae5b990cf460253c9b98",
        "gas": "0xd0f5",
        "value": "0x0",
        "input": "0x3bcf7ec100000000000000000000000016d4b53de6aba4b68480c7a3b6711df25fcb12d70000000000000000000000000000000000000000000000000000000000000000",
        "nonce": "0x0",
        "chainId": "0x92"
      },
      "additionalContracts": [],
      "isFixedGasLimit": false
    },
    {
      "hash": null,
      "transactionType": "CALL",
      "contractName": null,
      "contractAddress": "0x30047cca309b7aac3613ae5b990cf460253c9b98",
      "function": "_setBorrowPaused(address,bool)",
      "arguments": [
        "0xb2a43445B97cd6A179033788D763B8d0c0487E36",
        "false"
      ],
      "transaction": {
        "from": "0xfc4b72fd6309d2e68b595c56eacb256d2fe9b881",
        "to": "0x30047cca309b7aac3613ae5b990cf460253c9b98",
        "gas": "0xcf99",
        "value": "0x0",
        "input": "0x18c882a5000000000000000000000000b2a43445b97cd6a179033788d763b8d0c0487e360000000000000000000000000000000000000000000000000000000000000000",
        "nonce": "0x1",
        "chainId": "0x92"
      },
      "additionalContracts": [],
      "isFixedGasLimit": false
    },
    {
      "hash": null,
      "transactionType": "CALL",
      "contractName": null,
      "contractAddress": "0xed84043cba395bd3eacec6b378e49cd66e94941d",
      "function": "unpause()",
      "arguments": [],
      "transaction": {
        "from": "0xfc4b72fd6309d2e68b595c56eacb256d2fe9b881",
        "to": "0xed84043cba395bd3eacec6b378e49cd66e94941d",
        "gas": "0xa0ad",
        "value": "0x0",
        "input": "0x3f4ba83a",
        "nonce": "0x2",
        "chainId": "0x92"
      },
      "additionalContracts": [],
      "isFixedGasLimit": false
    },
    {
      "hash": null,
      "transactionType": "CALL",
      "contractName": null,
      "contractAddress": "0x30047cca309b7aac3613ae5b990cf460253c9b98",
      "function": "enterMarkets(address[])",
      "arguments": [
        "[0x16d4b53DE6abA4B68480C7A3B6711DF25fcb12D7, 0xb2a43445B97cd6A179033788D763B8d0c0487E36]"
      ],
      "transaction": {
        "from": "0x760c3c9c5985e29cf4239fa1e938a19471393acd",
        "to": "0x30047cca309b7aac3613ae5b990cf460253c9b98",
        "gas": "0x358aa",
        "value": "0x0",
        "input": "0xc29982380000000000000000000000000000000000000000000000000000000000000020000000000000000000000000000000000000000000000000000000000000000200000000000000000000000016d4b53de6aba4b68480c7a3b6711df25fcb12d7000000000000000000000000b2a43445b97cd6a179033788d763b8d0c0487e36",
        "nonce": "0x0",
        "chainId": "0x92"
      },
      "additionalContracts": [],
      "isFixedGasLimit": false
    },
    {
      "hash": null,
      "transactionType": "CALL",
      "contractName": null,
      "contractAddress": "0x83a6d8d9aa761e7e08ebe0ba5399970f9e8f61d9",
      "function": "approve(address,uint256)",
      "arguments": [
        "0x16d4b53DE6abA4B68480C7A3B6711DF25fcb12D7",
        "1000000000000000000000"
      ],
      "transaction": {
        "from": "0x760c3c9c5985e29cf4239fa1e938a19471393acd",
        "to": "0x83a6d8d9aa761e7e08ebe0ba5399970f9e8f61d9",
        "gas": "0x1094f",
        "value": "0x0",
        "input": "0x095ea7b300000000000000000000000016d4b53de6aba4b68480c7a3b6711df25fcb12d700000000000000000000000000000000000000000000003635c9adc5dea00000",
        "nonce": "0x1",
        "chainId": "0x92"
      },
      "additionalContracts": [],
      "isFixedGasLimit": false
    },
    {
      "hash": null,
      "transactionType": "CALL",
      "contractName": null,
      "contractAddress": "0x16d4b53de6aba4b68480c7a3b6711df25fcb12d7",
      "function": "mint(uint256)",
      "arguments": [
        "1000000000000000000000"
      ],
      "transaction": {
        "from": "0x760c3c9c5985e29cf4239fa1e938a19471393acd",
        "to": "0x16d4b53de6aba4b68480c7a3b6711df25fcb12d7",
        "gas": "0x2db19",
        "value": "0x0",
        "input": "0xa0712d6800000000000000000000000000000000000000000000003635c9adc5dea00000",
        "nonce": "0x2",
        "chainId": "0x92"
      },
      "additionalContracts": [],
      "isFixedGasLimit": false
    },
    {
      "hash": null,
      "transactionType": "CALL",
      "contractName": null,
      "contractAddress": "0xb2a43445b97cd6a179033788d763b8d0c0487e36",
      "function": "borrow(uint256)",
      "arguments": [
        "5000000000000000000000"
      ],
      "transaction": {
        "from": "0x760c3c9c5985e29cf4239fa1e938a19471393acd",
        "to": "0xb2a43445b97cd6a179033788d763b8d0c0487e36",
        "gas": "0x1350b1",
        "value": "0x0",
        "input": "0xc5ebeaec00000000000000000000000000000000000000000000010f0cf064dd59200000",
        "nonce": "0x3",
        "chainId": "0x92"
      },
      "additionalContracts": [],
      "isFixedGasLimit": false
    },
    {
      "hash": null,
      "transactionType": "CALL",
      "contractName": null,
      "contractAddress": "0xed84043cba395bd3eacec6b378e49cd66e94941d",
      "function": "updateWhitelist(address,bool)",
      "arguments": [
        "0x6389f7083468A6005ABFAf8126b688E9AEde3BA9",
        "true"
      ],
      "transaction": {
        "from": "0xfc4b72fd6309d2e68b595c56eacb256d2fe9b881",
        "to": "0xed84043cba395bd3eacec6b378e49cd66e94941d",
        "gas": "0x11050",
        "value": "0x0",
        "input": "0x0d392cd90000000000000000000000006389f7083468a6005abfaf8126b688e9aede3ba90000000000000000000000000000000000000000000000000000000000000001",
        "nonce": "0x3",
        "chainId": "0x92"
      },
      "additionalContracts": [],
      "isFixedGasLimit": false
    }
  ],
  "receipts": [
    {
      "status": "0x1",
      "cumulativeGasUsed": "0x5208",
      "logs": [],
      "logsBloom": "0x00000000000000000000000000000000000000000000000000000000000000000000000000000000000000000000000000000000000000000000000000000000000000000000000000000000000000000000000000000000000000000000000000000000000000000000000000000000000000000000000000000000000000000000000000000000000000000000000000000000000000000000000000000000000000000000000000000000000000000000000000000000000000000000000000000000000000000000000000000000000000000000000000000000000000000000000000000000000000000000000000000000000000000000000000000000",
      "type": "0x2",
      "transactionHash": "0x7813da2fd8cb33e557422e70fd6a4fcbb4756ca8f9943550b3592df607f251ba",
      "transactionIndex": "0x0",
      "blockHash": "0x02057f2b8fb84bf9c925af229ecde938436c0f0461ccaa13cb8a34a639f7273f",
      "blockNumber": "0x2c1fe63",
      "gasUsed": "0x5208",
      "effectiveGasPrice": "0x492563304",
      "blobGasPrice": "0x1",
      "from": "0xf39fd6e51aad88f6f4ce6ab8827279cfffb92266",
      "to": "0x760c3c9c5985e29cf4239fa1e938a19471393acd",
      "contractAddress": null
    },
    {
      "status": "0x1",
      "cumulativeGasUsed": "0x5208",
      "logs": [],
      "logsBloom": "0x00000000000000000000000000000000000000000000000000000000000000000000000000000000000000000000000000000000000000000000000000000000000000000000000000000000000000000000000000000000000000000000000000000000000000000000000000000000000000000000000000000000000000000000000000000000000000000000000000000000000000000000000000000000000000000000000000000000000000000000000000000000000000000000000000000000000000000000000000000000000000000000000000000000000000000000000000000000000000000000000000000000000000000000000000000000",
      "type": "0x2",
      "transactionHash": "0x547a55defe452f8345cbd8acf2fe0dbbb2075da7c1869b8300cf3764985b0c62",
      "transactionIndex": "0x0",
      "blockHash": "0x67493bde25be67abfa6cb5ba25f10209d3cdfaa544a41b9b49f158216adc9e48",
      "blockNumber": "0x2c1fe64",
      "gasUsed": "0x5208",
      "effectiveGasPrice": "0x4000bbd2d",
      "blobGasPrice": "0x1",
      "from": "0xf39fd6e51aad88f6f4ce6ab8827279cfffb92266",
      "to": "0x6389f7083468a6005abfaf8126b688e9aede3ba9",
      "contractAddress": null
    }
  ],
  "libraries": [],
  "pending": [],
  "returns": {},
  "timestamp": 1758555519795,
  "chain": 146,
  "commit": null
}