{
  "transactions": [
    {
      "hash": "0x18b0923069e11fd6ae773a84c2b0ca8bda8e5a51556f2857dab116a603effa38",
      "transactionType": "CALL",
      "contractName": null,
      "contractAddress": "0x760c3c9c5985e29cf4239fa1e938a19471393acd",
      "function": null,
      "arguments": null,
      "transaction": {
        "from": "0xf39fd6e51aad88f6f4ce6ab8827279cfffb92266",
        "to": "0x760c3c9c5985e29cf4239fa1e938a19471393acd",
        "gas": "0x714d",
        "value": "0x8ac7230489e80000",
        "input": "0x",
        "nonce": "0x8",
        "chainId": "0x92"
      },
      "additionalContracts": [],
      "isFixedGasLimit": false
    },
    {
      "hash": "0x818bf017c6e993c09041ef6aef7dffbe86076620251643871426cddbf3d8324e",
      "transactionType": "CALL",
      "contractName": null,
      "contractAddress": "0x6389f7083468a6005abfaf8126b688e9aede3ba9",
      "function": null,
      "arguments": null,
      "transaction": {
        "from": "0xf39fd6e51aad88f6f4ce6ab8827279cfffb92266",
        "to": "0x6389f7083468a6005abfaf8126b688e9aede3ba9",
        "gas": "0x714d",
        "value": "0x8ac7230489e80000",
        "input": "0x",
        "nonce": "0x9",
        "chainId": "0x92"
      },
      "additionalContracts": [],
      "isFixedGasLimit": false
    },
    {
      "hash": "0xbd6f7576f831973afb065090710b4dd1ff7225bd6a6cc54f4c56781a8e31a058",
      "transactionType": "CALL",
      "contractName": null,
      "contractAddress": "0x83a6d8d9aa761e7e08ebe0ba5399970f9e8f61d9",
      "function": "transfer(address,uint256)",
      "arguments": [
        "0x760c3c9C5985E29cf4239FA1E938a19471393acd",
        "10000000000000000000000"
      ],
      "transaction": {
        "from": "0xab82b2ea6bb96d56b5996d9219d2bfd9d6943520",
        "to": "0x83a6d8d9aa761e7e08ebe0ba5399970f9e8f61d9",
        "gas": "0x11689",
        "value": "0x0",
        "input": "0xa9059cbb000000000000000000000000760c3c9c5985e29cf4239fa1e938a19471393acd00000000000000000000000000000000000000000000021e19e0c9bab2400000",
        "nonce": "0x1c",
        "chainId": "0x92"
      },
      "additionalContracts": [],
      "isFixedGasLimit": false
    },
    {
      "hash": "0x9b34f5ea537d5aa76511a03198fe54760c3722dca4cb2b6ef123d7ec77fcd724",
      "transactionType": "CALL",
      "contractName": null,
      "contractAddress": "0xe5da20f15420ad15de0fa650600afc998bbe3955",
      "function": "transfer(address,uint256)",
      "arguments": [
        "0x6389f7083468A6005ABFAf8126b688E9AEde3BA9",
        "5100000000000000000000"
      ],
      "transaction": {
        "from": "0xdcf937feb1761df3ca3f1ce861c14d5e0acb148e",
        "to": "0xe5da20f15420ad15de0fa650600afc998bbe3955",
        "gas": "0x13167",
        "value": "0x0",
        "input": "0xa9059cbb0000000000000000000000006389f7083468a6005abfaf8126b688e9aede3ba900000000000000000000000000000000000000000000011478b7c30abc300000",
        "nonce": "0x4",
        "chainId": "0x92"
      },
      "additionalContracts": [],
      "isFixedGasLimit": false
    },
    {
      "hash": "0xe476c2df18136414ca636b20c0500d117ac84511fbda7662aaa2c78efd64b251",
      "transactionType": "CALL",
      "contractName": null,
      "contractAddress": "0x30047cca309b7aac3613ae5b990cf460253c9b98",
      "function": "_setMintPaused(address,bool)",
      "arguments": [
        "0x16d4b53DE6abA4B68480C7A3B6711DF25fcb12D7",
        "false"
      ],
      "transaction": {
        "from": "0xfc4b72fd6309d2e68b595c56eacb256d2fe9b881",
        "to": "0x30047cca309b7aac3613ae5b990cf460253c9b98",
        "gas": "0xd0f5",
        "value": "0x0",
        "input": "0x3bcf7ec100000000000000000000000016d4b53de6aba4b68480c7a3b6711df25fcb12d70000000000000000000000000000000000000000000000000000000000000000",
        "nonce": "0x1",
        "chainId": "0x92"
      },
      "additionalContracts": [],
      "isFixedGasLimit": false
    },
    {
      "hash": "0x04063b3fb8857f87249019124aa9104012ff5f80fbc517a5830a0c6ed0041737",
      "transactionType": "CALL",
      "contractName": null,
      "contractAddress": "0x30047cca309b7aac3613ae5b990cf460253c9b98",
      "function": "_setBorrowPaused(address,bool)",
      "arguments": [
        "0xb2a43445B97cd6A179033788D763B8d0c0487E36",
        "false"
      ],
      "transaction": {
        "from": "0xfc4b72fd6309d2e68b595c56eacb256d2fe9b881",
        "to": "0x30047cca309b7aac3613ae5b990cf460253c9b98",
        "gas": "0xcf99",
        "value": "0x0",
        "input": "0x18c882a5000000000000000000000000b2a43445b97cd6a179033788d763b8d0c0487e360000000000000000000000000000000000000000000000000000000000000000",
        "nonce": "0x2",
        "chainId": "0x92"
      },
      "additionalContracts": [],
      "isFixedGasLimit": false
    },
    {
      "hash": "0x626d9e8ae9d5642b970d82368e77301b19131fd0795f0cfacdc582049e061317",
      "transactionType": "CALL",
      "contractName": null,
      "contractAddress": "0xed84043cba395bd3eacec6b378e49cd66e94941d",
      "function": "unpause()",
      "arguments": [],
      "transaction": {
        "from": "0xfc4b72fd6309d2e68b595c56eacb256d2fe9b881",
        "to": "0xed84043cba395bd3eacec6b378e49cd66e94941d",
        "gas": "0xa0ad",
        "value": "0x0",
        "input": "0x3f4ba83a",
        "nonce": "0x3",
        "chainId": "0x92"
      },
      "additionalContracts": [],
      "isFixedGasLimit": false
    },
    {
      "hash": "0x6be4915777663c88ba733aa77a2a565ae81cf2a6bff2666420cdc3cb7286b102",
      "transactionType": "CALL",
      "contractName": null,
      "contractAddress": "0x30047cca309b7aac3613ae5b990cf460253c9b98",
      "function": "enterMarkets(address[])",
      "arguments": [
        "[0x16d4b53DE6abA4B68480C7A3B6711DF25fcb12D7, 0xb2a43445B97cd6A179033788D763B8d0c0487E36]"
      ],
      "transaction": {
        "from": "0x760c3c9c5985e29cf4239fa1e938a19471393acd",
        "to": "0x30047cca309b7aac3613ae5b990cf460253c9b98",
        "gas": "0x358aa",
        "value": "0x0",
        "input": "0xc29982380000000000000000000000000000000000000000000000000000000000000020000000000000000000000000000000000000000000000000000000000000000200000000000000000000000016d4b53de6aba4b68480c7a3b6711df25fcb12d7000000000000000000000000b2a43445b97cd6a179033788d763b8d0c0487e36",
        "nonce": "0x0",
        "chainId": "0x92"
      },
      "additionalContracts": [],
      "isFixedGasLimit": false
    },
    {
      "hash": "0xea139a968a9cf0c0c3a159d9d2da2721d2faf944b4865bc48763f268ee116d83",
      "transactionType": "CALL",
      "contractName": null,
      "contractAddress": "0x83a6d8d9aa761e7e08ebe0ba5399970f9e8f61d9",
      "function": "approve(address,uint256)",
      "arguments": [
        "0x16d4b53DE6abA4B68480C7A3B6711DF25fcb12D7",
        "1000000000000000000000"
      ],
      "transaction": {
        "from": "0x760c3c9c5985e29cf4239fa1e938a19471393acd",
        "to": "0x83a6d8d9aa761e7e08ebe0ba5399970f9e8f61d9",
        "gas": "0x1094f",
        "value": "0x0",
        "input": "0x095ea7b300000000000000000000000016d4b53de6aba4b68480c7a3b6711df25fcb12d700000000000000000000000000000000000000000000003635c9adc5dea00000",
        "nonce": "0x1",
        "chainId": "0x92"
      },
      "additionalContracts": [],
      "isFixedGasLimit": false
    },
    {
      "hash": "0x0d49a973987222cba2fc87b93eefc83a3bd74a48f681cce57ea5bceff3b90110",
      "transactionType": "CALL",
      "contractName": null,
      "contractAddress": "0x16d4b53de6aba4b68480c7a3b6711df25fcb12d7",
      "function": "mint(uint256)",
      "arguments": [
        "1000000000000000000000"
      ],
      "transaction": {
        "from": "0x760c3c9c5985e29cf4239fa1e938a19471393acd",
        "to": "0x16d4b53de6aba4b68480c7a3b6711df25fcb12d7",
        "gas": "0x2db19",
        "value": "0x0",
        "input": "0xa0712d6800000000000000000000000000000000000000000000003635c9adc5dea00000",
        "nonce": "0x2",
        "chainId": "0x92"
      },
      "additionalContracts": [],
      "isFixedGasLimit": false
    },
    {
      "hash": "0xf869316aa79c5bde6c5933b68559eb7c40d34cce849f1bc26ff704500ca7884d",
      "transactionType": "CALL",
      "contractName": null,
      "contractAddress": "0xb2a43445b97cd6a179033788d763b8d0c0487e36",
      "function": "borrow(uint256)",
      "arguments": [
        "5000000000000000000000"
      ],
      "transaction": {
        "from": "0x760c3c9c5985e29cf4239fa1e938a19471393acd",
        "to": "0xb2a43445b97cd6a179033788d763b8d0c0487e36",
        "gas": "0x1350b1",
        "value": "0x0",
        "input": "0xc5ebeaec00000000000000000000000000000000000000000000010f0cf064dd59200000",
        "nonce": "0x3",
        "chainId": "0x92"
      },
      "additionalContracts": [],
      "isFixedGasLimit": false
    },
    {
      "hash": "0x264be67a81ada59c8614aec751646f3afb0b403b99cbca8dac239af9dd530469",
      "transactionType": "CALL",
      "contractName": null,
      "contractAddress": "0xed84043cba395bd3eacec6b378e49cd66e94941d",
      "function": "updateWhitelist(address,bool)",
      "arguments": [
        "0x6389f7083468A6005ABFAf8126b688E9AEde3BA9",
        "true"
      ],
      "transaction": {
        "from": "0xfc4b72fd6309d2e68b595c56eacb256d2fe9b881",
        "to": "0xed84043cba395bd3eacec6b378e49cd66e94941d",
        "gas": "0x11050",
        "value": "0x0",
        "input": "0x0d392cd90000000000000000000000006389f7083468a6005abfaf8126b688e9aede3ba90000000000000000000000000000000000000000000000000000000000000001",
        "nonce": "0x4",
        "chainId": "0x92"
      },
      "additionalContracts": [],
      "isFixedGasLimit": false
    }
  ],
  "receipts": [
    {
      "status": "0x1",
      "cumulativeGasUsed": "0x5208",
      "logs": [],
      "logsBloom": "0x00000000000000000000000000000000000000000000000000000000000000000000000000000000000000000000000000000000000000000000000000000000000000000000000000000000000000000000000000000000000000000000000000000000000000000000000000000000000000000000000000000000000000000000000000000000000000000000000000000000000000000000000000000000000000000000000000000000000000000000000000000000000000000000000000000000000000000000000000000000000000000000000000000000000000000000000000000000000000000000000000000000000000000000000000000000",
      "type": "0x2",
      "transactionHash": "0x18b0923069e11fd6ae773a84c2b0ca8bda8e5a51556f2857dab116a603effa38",
      "transactionIndex": "0x0",
      "blockHash": "0xc5a01e9f0f6a78424d813f208d26cba8a043b0fabe59a5942c18a268b299bff2",
      "blockNumber": "0x2c1fe5f",
      "gasUsed": "0x5208",
      "effectiveGasPrice": "0x7cc887ed8",
      "blobGasPrice": "0x1",
      "from": "0xf39fd6e51aad88f6f4ce6ab8827279cfffb92266",
      "to": "0x760c3c9c5985e29cf4239fa1e938a19471393acd",
      "contractAddress": null
    },
    {
      "status": "0x1",
      "cumulativeGasUsed": "0x5208",
      "logs": [],
      "logsBloom": "0x00000000000000000000000000000000000000000000000000000000000000000000000000000000000000000000000000000000000000000000000000000000000000000000000000000000000000000000000000000000000000000000000000000000000000000000000000000000000000000000000000000000000000000000000000000000000000000000000000000000000000000000000000000000000000000000000000000000000000000000000000000000000000000000000000000000000000000000000000000000000000000000000000000000000000000000000000000000000000000000000000000000000000000000000000000000",
      "type": "0x2",
      "transactionHash": "0x818bf017c6e993c09041ef6aef7dffbe86076620251643871426cddbf3d8324e",
      "transactionIndex": "0x0",
      "blockHash": "0x94a4e6a6923293f2e6c98d1d99b0a6eb07bc84bebd063d4c66f14e2acd9dc185",
      "blockNumber": "0x2c1fe60",
      "gasUsed": "0x5208",
      "effectiveGasPrice": "0x6d2f7f861",
      "blobGasPrice": "0x1",
      "from": "0xf39fd6e51aad88f6f4ce6ab8827279cfffb92266",
      "to": "0x6389f7083468a6005abfaf8126b688e9aede3ba9",
      "contractAddress": null
    },
    {
      "status": "0x1",
      "cumulativeGasUsed": "0xc9a8",
      "logs": [
        {
          "address": "0x83a6d8d9aa761e7e08ebe0ba5399970f9e8f61d9",
          "topics": [
            "0xddf252ad1be2c89b69c2b068fc378daa952ba7f163c4a11628f55a4df523b3ef",
            "0x000000000000000000000000ab82b2ea6bb96d56b5996d9219d2bfd9d6943520",
            "0x000000000000000000000000760c3c9c5985e29cf4239fa1e938a19471393acd"
          ],
          "data": "0x00000000000000000000000000000000000000000000021e19e0c9bab2400000",
          "blockHash": "0x1acb2d618ddb5456912d38c29c57bca77467bda3644fc005c436cded7374f016",
          "blockNumber": "0x2c1fe61",
          "blockTimestamp": "0x68c02e79",
          "transactionHash": "0xbd6f7576f831973afb065090710b4dd1ff7225bd6a6cc54f4c56781a8e31a058",
          "transactionIndex": "0x0",
          "logIndex": "0x0",
          "removed": false
        }
      ],
      "logsBloom": "0x00000000000000000000000008000010000000000000000000000000000000000000000000000000000000000000000000000000000000000000000000000000000000000000000000000008000000000400000000000000000000000020000400000000000000000000000000000000000000000000000000100010000000004000000000000000000000000000000000000000000000000000000000000000000000000020000000000000000000000000000000000000000000000000000000000002000000000200000000000000000000000000000000000000000000000000000000000000000000000000000000000000000000000000000000000000",
      "type": "0x2",
      "transactionHash": "0xbd6f7576f831973afb065090710b4dd1ff7225bd6a6cc54f4c56781a8e31a058",
      "transactionIndex": "0x0",
      "blockHash": "0x1acb2d618ddb5456912d38c29c57bca77467bda3644fc005c436cded7374f016",
      "blockNumber": "0x2c1fe61",
      "gasUsed": "0xc9a8",
      "effectiveGasPrice": "0x5f899718c",
      "blobGasPrice": "0x1",
      "from": "0xab82b2ea6bb96d56b5996d9219d2bfd9d6943520",
      "to": "0x83a6d8d9aa761e7e08ebe0ba5399970f9e8f61d9",
      "contractAddress": null
    },
    {
      "status": "0x1",
      "cumulativeGasUsed": "0xdd1c",
      "logs": [
        {
          "address": "0xe5da20f15420ad15de0fa650600afc998bbe3955",
          "topics": [
            "0xddf252ad1be2c89b69c2b068fc378daa952ba7f163c4a11628f55a4df523b3ef",
            "0x000000000000000000000000dcf937feb1761df3ca3f1ce861c14d5e0acb148e",
            "0x0000000000000000000000006389f7083468a6005abfaf8126b688e9aede3ba9"
          ],
          "data": "0x00000000000000000000000000000000000000000000011478b7c30abc300000",
          "blockHash": "0xfc72b85e9f5cdf0c80555d7a5ab1def33b4c254cb22ff80a5c01cb351eb77833",
          "blockNumber": "0x2c1fe62",
          "blockTimestamp": "0x68c02e79",
          "transactionHash": "0x9b34f5ea537d5aa76511a03198fe54760c3722dca4cb2b6ef123d7ec77fcd724",
          "transactionIndex": "0x0",
          "logIndex": "0x0",
          "removed": false
        }
      ],
      "logsBloom": "0x00000000000000000000000000400000000000000000000000000000000000002000000000200000000100000000000000000000000000000000000000000000000000000000000000000008000080000000000000000000000000000000000000000000000000000000004000000000000002000000000000000010000000000000000000000000000000000004000000000000000000000000000000000000000000000000000000000000000000000000000000000000000000000000000000000002000000000000000000000000000000000000000000000000000000000000000000000000000000000000000000000400000000000000000000000000",
      "type": "0x2",
      "transactionHash": "0x9b34f5ea537d5aa76511a03198fe54760c3722dca4cb2b6ef123d7ec77fcd724",
      "transactionIndex": "0x0",
      "blockHash": "0xfc72b85e9f5cdf0c80555d7a5ab1def33b4c254cb22ff80a5c01cb351eb77833",
      "blockNumber": "0x2c1fe62",
      "gasUsed": "0xdd1c",
      "effectiveGasPrice": "0x5398745f0",
      "blobGasPrice": "0x1",
      "from": "0xdcf937feb1761df3ca3f1ce861c14d5e0acb148e",
      "to": "0xe5da20f15420ad15de0fa650600afc998bbe3955",
      "contractAddress": null
    },
    {
      "status": "0x1",
      "cumulativeGasUsed": "0x8ee1",
      "logs": [
        {
          "address": "0x30047cca309b7aac3613ae5b990cf460253c9b98",
          "topics": [
            "0x71aec636243f9709bb0007ae15e9afb8150ab01716d75fd7573be5cc096e03b0"
          ],
          "data": "0x00000000000000000000000016d4b53de6aba4b68480c7a3b6711df25fcb12d70000000000000000000000000000000000000000000000000000000000000060000000000000000000000000000000000000000000000000000000000000000000000000000000000000000000000000000000000000000000000000000000044d696e7400000000000000000000000000000000000000000000000000000000",
          "blockHash": "0x0fbcaf35beddbbd121c36028f5379f0b03fbe2cff2f5909a6d4542cb1d773e46",
          "blockNumber": "0x2c1fe63",
          "blockTimestamp": "0x68c02e79",
          "transactionHash": "0xe476c2df18136414ca636b20c0500d117ac84511fbda7662aaa2c78efd64b251",
          "transactionIndex": "0x0",
          "logIndex": "0x0",
          "removed": false
        }
      ],
      "logsBloom": "0x00000000000000000000000000000000000000000000000000000000000000000000000000000000000000000000000000000000000000000000000000000000000000000000000000000000000000000000000000001000000000000000000000000000000000000004000000000000000000000000000000000000000000000000000000000000000000000000000000000000000800000000000000000000400000000000001000000000000000000000000000000000000000000000000000000000000000000000000000000000000000000000000000000000000000020000000000000000000000000000000000000000000000000000000000000000",
      "type": "0x2",
      "transactionHash": "0xe476c2df18136414ca636b20c0500d117ac84511fbda7662aaa2c78efd64b251",
      "transactionIndex": "0x0",
      "blockHash": "0x0fbcaf35beddbbd121c36028f5379f0b03fbe2cff2f5909a6d4542cb1d773e46",
      "blockNumber": "0x2c1fe63",
      "gasUsed": "0x8ee1",
      "effectiveGasPrice": "0x492575548",
      "blobGasPrice": "0x1",
      "from": "0xfc4b72fd6309d2e68b595c56eacb256d2fe9b881",
      "to": "0x30047cca309b7aac3613ae5b990cf460253c9b98",
      "contractAddress": null
    },
    {
      "status": "0x1",
      "cumulativeGasUsed": "0x8df3",
      "logs": [
        {
          "address": "0x30047cca309b7aac3613ae5b990cf460253c9b98",
          "topics": [
            "0x71aec636243f9709bb0007ae15e9afb8150ab01716d75fd7573be5cc096e03b0"
          ],
          "data": "0x000000000000000000000000b2a43445b97cd6a179033788d763b8d0c0487e36000000000000000000000000000000000000000000000000000000000000006000000000000000000000000000000000000000000000000000000000000000000000000000000000000000000000000000000000000000000000000000000006426f72726f770000000000000000000000000000000000000000000000000000",
          "blockHash": "0x01ca11b4f1645d569b97f5b8dcd8f4b3e239b027527db29a62cd7d881e206b08",
          "blockNumber": "0x2c1fe64",
          "blockTimestamp": "0x68c02e79",
          "transactionHash": "0x04063b3fb8857f87249019124aa9104012ff5f80fbc517a5830a0c6ed0041737",
          "transactionIndex": "0x0",
          "logIndex": "0x0",
          "removed": false
        }
      ],
      "logsBloom": "0x00000000000000000000000000000000000000000000000000000000000000000000000000000000000000000000000000000000000000000000000000000000000000000000000000000000000000000000000000001000000000000000000000000000000000000004000000000000000000000000000000000000000000000000000000000000000000000000000000000000000800000000000000000000400000000000001000000000000000000000000000000000000000000000000000000000000000000000000000000000000000000000000000000000000000020000000000000000000000000000000000000000000000000000000000000000",
      "type": "0x2",
      "transactionHash": "0x04063b3fb8857f87249019124aa9104012ff5f80fbc517a5830a0c6ed0041737",
      "transactionIndex": "0x0",
      "blockHash": "0x01ca11b4f1645d569b97f5b8dcd8f4b3e239b027527db29a62cd7d881e206b08",
      "blockNumber": "0x2c1fe64",
      "gasUsed": "0x8df3",
      "effectiveGasPrice": "0x4000cf6e5",
      "blobGasPrice": "0x1",
      "from": "0xfc4b72fd6309d2e68b595c56eacb256d2fe9b881",
      "to": "0x30047cca309b7aac3613ae5b990cf460253c9b98",
      "contractAddress": null
    },
    {
      "status": "0x1",
      "cumulativeGasUsed": "0x7454",
      "logs": [
        {
          "address": "0xed84043cba395bd3eacec6b378e49cd66e94941d",
          "topics": [
            "0x5db9ee0a495bf2e6ff9c91a7834c1ba4fdd244a5e8aa4e537bd38aeae4b073aa"
          ],
          "data": "0x000000000000000000000000fc4b72fd6309d2e68b595c56eacb256d2fe9b881",
          "blockHash": "0x1de14f80d74a4d00c0248788a618f6738f2963e31a62a0c104cb2df911db9da3",
          "blockNumber": "0x2c1fe65",
          "blockTimestamp": "0x68c02e79",
          "transactionHash": "0x626d9e8ae9d5642b970d82368e77301b19131fd0795f0cfacdc582049e061317",
          "transactionIndex": "0x0",
          "logIndex": "0x0",
          "removed": false
        }
      ],
      "logsBloom": "0x00000000000000000000000000000000000000000000000080100000000000000000000000000000000000000000000000000000000000000000000000000000000000000000000000000000000000000000000000000000000000008000000000000000000000000000000000000000000000000000000000000000000000000000000000000000000000000000000000000000000000000000000000000000000000000000000000000000000000000000000000000000200000000000000000000000000000000000000000000000000008000000000000000000000000000000000000000000000000000000000000000000000000000000000000000400",
      "type": "0x2",
      "transactionHash": "0x626d9e8ae9d5642b970d82368e77301b19131fd0795f0cfacdc582049e061317",
      "transactionIndex": "0x0",
      "blockHash": "0x1de14f80d74a4d00c0248788a618f6738f2963e31a62a0c104cb2df911db9da3",
      "blockNumber": "0x2c1fe65",
      "gasUsed": "0x7454",
      "effectiveGasPrice": "0x3800bd1fa",
      "blobGasPrice": "0x1",
      "from": "0xfc4b72fd6309d2e68b595c56eacb256d2fe9b881",
      "to": "0xed84043cba395bd3eacec6b378e49cd66e94941d",
      "contractAddress": null
    },
    {
      "status": "0x1",
      "cumulativeGasUsed": "0x249c1",
      "logs": [
        {
          "address": "0x30047cca309b7aac3613ae5b990cf460253c9b98",
          "topics": [
            "0x3ab23ab0d51cccc0c3085aec51f99228625aa1a922b3a8ca89a26b0f2027a1a5"
          ],
          "data": "0x00000000000000000000000016d4b53de6aba4b68480c7a3b6711df25fcb12d7000000000000000000000000760c3c9c5985e29cf4239fa1e938a19471393acd",
          "blockHash": "0x4e143fd88a5a3aa9c4d22ae3576772b8df57b677b6a4bc06ee2b73613988fc95",
          "blockNumber": "0x2c1fe66",
          "blockTimestamp": "0x68c02e79",
          "transactionHash": "0x6be4915777663c88ba733aa77a2a565ae81cf2a6bff2666420cdc3cb7286b102",
          "transactionIndex": "0x0",
          "logIndex": "0x0",
          "removed": false
        },
        {
          "address": "0x30047cca309b7aac3613ae5b990cf460253c9b98",
          "topics": [
            "0x3ab23ab0d51cccc0c3085aec51f99228625aa1a922b3a8ca89a26b0f2027a1a5"
          ],
          "data": "0x000000000000000000000000b2a43445b97cd6a179033788d763b8d0c0487e36000000000000000000000000760c3c9c5985e29cf4239fa1e938a19471393acd",
          "blockHash": "0x4e143fd88a5a3aa9c4d22ae3576772b8df57b677b6a4bc06ee2b73613988fc95",
          "blockNumber": "0x2c1fe66",
          "blockTimestamp": "0x68c02e79",
          "transactionHash": "0x6be4915777663c88ba733aa77a2a565ae81cf2a6bff2666420cdc3cb7286b102",
          "transactionIndex": "0x0",
          "logIndex": "0x1",
          "removed": false
        }
      ],
      "logsBloom": "0x00000000000000000000000000000000000000000000000000000000000000000000000000000000000000000000000000000000010000010000000000000000000000000000000000000000000000000000000000000000000000000000000000000000000000000004000000000000000000000010000000000000000000000000000000000000000000000000000000000000000000000000000000000000400000000000000000000000000000000000000000000000000000000000000000000000000000000000000000000000000000000000000000000000000000020000000000000000000000000000000000000000000000000000000000000000",
      "type": "0x2",
      "transactionHash": "0x6be4915777663c88ba733aa77a2a565ae81cf2a6bff2666420cdc3cb7286b102",
      "transactionIndex": "0x0",
      "blockHash": "0x4e143fd88a5a3aa9c4d22ae3576772b8df57b677b6a4bc06ee2b73613988fc95",
      "blockNumber": "0x2c1fe66",
      "gasUsed": "0x249c1",
      "effectiveGasPrice": "0x3100aaf2c",
      "blobGasPrice": "0x1",
      "from": "0x760c3c9c5985e29cf4239fa1e938a19471393acd",
      "to": "0x30047cca309b7aac3613ae5b990cf460253c9b98",
      "contractAddress": null
    },
    {
      "status": "0x1",
      "cumulativeGasUsed": "0xb569",
      "logs": [
        {
          "address": "0x83a6d8d9aa761e7e08ebe0ba5399970f9e8f61d9",
          "topics": [
            "0x8c5be1e5ebec7d5bd14f71427d1e84f3dd0314c0f7b2291e5b200ac8c7c3b925",
            "0x000000000000000000000000760c3c9c5985e29cf4239fa1e938a19471393acd",
            "0x00000000000000000000000016d4b53de6aba4b68480c7a3b6711df25fcb12d7"
          ],
          "data": "0x00000000000000000000000000000000000000000000003635c9adc5dea00000",
          "blockHash": "0x86cd176e2681e4be7023bbc9d9329498c9fa4e51182fa090a849bae5c3c89301",
          "blockNumber": "0x2c1fe67",
          "blockTimestamp": "0x68c02e79",
          "transactionHash": "0xea139a968a9cf0c0c3a159d9d2da2721d2faf944b4865bc48763f268ee116d83",
          "transactionIndex": "0x0",
          "logIndex": "0x0",
          "removed": false
        }
      ],
      "logsBloom": "0x00000000000000000000000000000010000000000000000000000000000000000000000000000000000000000000000000000000000000000000000000200080000000000000000000000000000000000400000000000000000000000020000400000000000000000000000000000000000000000000000000100000000000000000000000000000000000000000000000000000000000004000000000000000020000000000000000000000000000000000000000000000000000000000000000000000000000000200000000000000000000000000000000020000000000000010000000000000000000000000000000000000000000000000000000000000",
      "type": "0x2",
      "transactionHash": "0xea139a968a9cf0c0c3a159d9d2da2721d2faf944b4865bc48763f268ee116d83",
      "transactionIndex": "0x0",
      "blockHash": "0x86cd176e2681e4be7023bbc9d9329498c9fa4e51182fa090a849bae5c3c89301",
      "blockNumber": "0x2c1fe67",
      "gasUsed": "0xb569",
      "effectiveGasPrice": "0x2ae0ada87",
      "blobGasPrice": "0x1",
      "from": "0x760c3c9c5985e29cf4239fa1e938a19471393acd",
      "to": "0x83a6d8d9aa761e7e08ebe0ba5399970f9e8f61d9",
      "contractAddress": null
    },
    {
      "status": "0x1",
      "cumulativeGasUsed": "0x2114e",
      "logs": [
        {
          "address": "0x16d4b53de6aba4b68480c7a3b6711df25fcb12d7",
          "topics": [
            "0x4dec04e750ca11537cabcd8a9eab06494de08da3735bc8871cd41250e190bc04"
          ],
          "data": "0x000000000000000000000000000000000000000000000b7f946bcf52ee95e4d600000000000000000000000000000000000000000000000000000000000000000000000000000000000000000000000000000000000000000de0b6b3a76400000000000000000000000000000000000000000000000000000000000000000000",
          "blockHash": "0x08a45cc63cc9e69d2579cb21a0db86207714a59ffd002799c22f10b7caaf8d0a",
          "blockNumber": "0x2c1fe68",
          "blockTimestamp": "0x68c02e79",
          "transactionHash": "0x0d49a973987222cba2fc87b93eefc83a3bd74a48f681cce57ea5bceff3b90110",
          "transactionIndex": "0x0",
          "logIndex": "0x0",
          "removed": false
        },
        {
          "address": "0x83a6d8d9aa761e7e08ebe0ba5399970f9e8f61d9",
          "topics": [
            "0xddf252ad1be2c89b69c2b068fc378daa952ba7f163c4a11628f55a4df523b3ef",
            "0x000000000000000000000000760c3c9c5985e29cf4239fa1e938a19471393acd",
            "0x00000000000000000000000016d4b53de6aba4b68480c7a3b6711df25fcb12d7"
          ],
          "data": "0x00000000000000000000000000000000000000000000003635c9adc5dea00000",
          "blockHash": "0x08a45cc63cc9e69d2579cb21a0db86207714a59ffd002799c22f10b7caaf8d0a",
          "blockNumber": "0x2c1fe68",
          "blockTimestamp": "0x68c02e79",
          "transactionHash": "0x0d49a973987222cba2fc87b93eefc83a3bd74a48f681cce57ea5bceff3b90110",
          "transactionIndex": "0x0",
          "logIndex": "0x1",
          "removed": false
        },
        {
          "address": "0x16d4b53de6aba4b68480c7a3b6711df25fcb12d7",
          "topics": [
            "0x4c209b5fc8ad50758f13e2e1088ba56a560dff690a1c6fef26394f4c03821c4f"
          ],
          "data": "0x000000000000000000000000760c3c9c5985e29cf4239fa1e938a19471393acd00000000000000000000000000000000000000000000003635c9adc5dea000000000000000000000000000000000000000000000000000000000048c27394ffe",
          "blockHash": "0x08a45cc63cc9e69d2579cb21a0db86207714a59ffd002799c22f10b7caaf8d0a",
          "blockNumber": "0x2c1fe68",
          "blockTimestamp": "0x68c02e79",
          "transactionHash": "0x0d49a973987222cba2fc87b93eefc83a3bd74a48f681cce57ea5bceff3b90110",
          "transactionIndex": "0x0",
          "logIndex": "0x2",
          "removed": false
        },
        {
          "address": "0x16d4b53de6aba4b68480c7a3b6711df25fcb12d7",
          "topics": [
            "0xddf252ad1be2c89b69c2b068fc378daa952ba7f163c4a11628f55a4df523b3ef",
            "0x00000000000000000000000016d4b53de6aba4b68480c7a3b6711df25fcb12d7",
            "0x000000000000000000000000760c3c9c5985e29cf4239fa1e938a19471393acd"
          ],
          "data": "0x0000000000000000000000000000000000000000000000000000048c27394ffe",
          "blockHash": "0x08a45cc63cc9e69d2579cb21a0db86207714a59ffd002799c22f10b7caaf8d0a",
          "blockNumber": "0x2c1fe68",
          "blockTimestamp": "0x68c02e79",
          "transactionHash": "0x0d49a973987222cba2fc87b93eefc83a3bd74a48f681cce57ea5bceff3b90110",
          "transactionIndex": "0x0",
          "logIndex": "0x3",
          "removed": false
        }
      ],
      "logsBloom": "0x00000000000000000000000000000010000000000000400000000000000001000000000000000000000000000000000000000000020000000000000000000080000000000000000000000008000000000400000000000010000000000020000400000000000000000000000000000000000000000008000000100010000000000000000000000000000000000400000000000000000000004000000000000080000000000000000000000000000000000000000000000000000000000000000000000002000000000200000000020000000000000000000000020000000000000000000000000000000000000000000000200000000000000000000000000000",
      "type": "0x2",
      "transactionHash": "0x0d49a973987222cba2fc87b93eefc83a3bd74a48f681cce57ea5bceff3b90110",
      "transactionIndex": "0x0",
      "blockHash": "0x08a45cc63cc9e69d2579cb21a0db86207714a59ffd002799c22f10b7caaf8d0a",
      "blockNumber": "0x2c1fe68",
      "gasUsed": "0x2114e",
      "effectiveGasPrice": "0x25849e79d",
      "blobGasPrice": "0x1",
      "from": "0x760c3c9c5985e29cf4239fa1e938a19471393acd",
      "to": "0x16d4b53de6aba4b68480c7a3b6711df25fcb12d7",
      "contractAddress": null
    },
    {
      "status": "0x1",
      "cumulativeGasUsed": "0xdfbdf",
      "logs": [
        {
          "address": "0xb2a43445b97cd6a179033788d763b8d0c0487e36",
          "topics": [
            "0x4dec04e750ca11537cabcd8a9eab06494de08da3735bc8871cd41250e190bc04"
          ],
          "data": "0x00000000000000000000000000000000000000000000b9e19ada0a10c8ff3b0f00000000000000000000000000000000000000000000000000000000000000000000000000000000000000000000000000000000000000000de0b6b3a76400000000000000000000000000000000000000000000000085e2921500f43ae9148f",
          "blockHash": "0xd0c951554373e1ead81aaaf011c9506114743a84b3a12aca568d6fd24d38f136",
          "blockNumber": "0x2c1fe69",
          "blockTimestamp": "0x68c02e79",
          "transactionHash": "0xf869316aa79c5bde6c5933b68559eb7c40d34cce849f1bc26ff704500ca7884d",
          "transactionIndex": "0x0",
          "logIndex": "0x0",
          "removed": false
        },
        {
          "address": "0xe5da20f15420ad15de0fa650600afc998bbe3955",
          "topics": [
            "0xddf252ad1be2c89b69c2b068fc378daa952ba7f163c4a11628f55a4df523b3ef",
            "0x000000000000000000000000ed84043cba395bd3eacec6b378e49cd66e94941d",
            "0x000000000000000000000000b2a43445b97cd6a179033788d763b8d0c0487e36"
          ],
          "data": "0x00000000000000000000000000000000000000000000010f0cf064dd59200000",
          "blockHash": "0xd0c951554373e1ead81aaaf011c9506114743a84b3a12aca568d6fd24d38f136",
          "blockNumber": "0x2c1fe69",
          "blockTimestamp": "0x68c02e79",
          "transactionHash": "0xf869316aa79c5bde6c5933b68559eb7c40d34cce849f1bc26ff704500ca7884d",
          "transactionIndex": "0x0",
          "logIndex": "0x1",
          "removed": false
        },
        {
          "address": "0xed84043cba395bd3eacec6b378e49cd66e94941d",
          "topics": [
            "0xeb4c69d43332aa08f82f73cb19c169a68ec508a9e2e758868a1b4e078ed15059"
          ],
          "data": "0x00000000000000000000000000000000000000000000010f0cf064dd59200000",
          "blockHash": "0xd0c951554373e1ead81aaaf011c9506114743a84b3a12aca568d6fd24d38f136",
          "blockNumber": "0x2c1fe69",
          "blockTimestamp": "0x68c02e79",
          "transactionHash": "0xf869316aa79c5bde6c5933b68559eb7c40d34cce849f1bc26ff704500ca7884d",
          "transactionIndex": "0x0",
          "logIndex": "0x2",
          "removed": false
        },
        {
          "address": "0xb2a43445b97cd6a179033788d763b8d0c0487e36",
          "topics": [
            "0x13ed6866d4e1ee6da46f845c46d7e54120883d75c5ea9a2dacc1c4ca8984ab80"
          ],
          "data": "0x000000000000000000000000760c3c9c5985e29cf4239fa1e938a19471393acd00000000000000000000000000000000000000000000010f0cf064dd5920000000000000000000000000000000000000000000000000010f0cf064dd592000000000000000000000000000000000000000000000000086f19f0565d19409148f",
          "blockHash": "0xd0c951554373e1ead81aaaf011c9506114743a84b3a12aca568d6fd24d38f136",
          "blockNumber": "0x2c1fe69",
          "blockTimestamp": "0x68c02e79",
          "transactionHash": "0xf869316aa79c5bde6c5933b68559eb7c40d34cce849f1bc26ff704500ca7884d",
          "transactionIndex": "0x0",
          "logIndex": "0x3",
          "removed": false
        },
        {
          "address": "0xe5da20f15420ad15de0fa650600afc998bbe3955",
          "topics": [
            "0xddf252ad1be2c89b69c2b068fc378daa952ba7f163c4a11628f55a4df523b3ef",
            "0x000000000000000000000000b2a43445b97cd6a179033788d763b8d0c0487e36",
            "0x000000000000000000000000760c3c9c5985e29cf4239fa1e938a19471393acd"
          ],
          "data": "0x00000000000000000000000000000000000000000000010f0cf064dd59200000",
          "blockHash": "0xd0c951554373e1ead81aaaf011c9506114743a84b3a12aca568d6fd24d38f136",
          "blockNumber": "0x2c1fe69",
          "blockTimestamp": "0x68c02e79",
          "transactionHash": "0xf869316aa79c5bde6c5933b68559eb7c40d34cce849f1bc26ff704500ca7884d",
          "transactionIndex": "0x0",
          "logIndex": "0x4",
          "removed": false
        }
      ],
      "logsBloom": "0x00000000200000000000000000000010000000000000400000100000000000000000000000009000000100000000000000000000000000000000800000000000000000000000000000000008000000000000000000020000000000000000010440000000000000000000000000000000000002000000000000140010000000000002003000000000000000000000000000000000000000000000000000000080000000000000000000000000000000000000000000000000200000000000000000000002000000080000000000000800000008000000002000000000000000000000000000000000000000000000000000200402000000000000000000000000",
      "type": "0x2",
      "transactionHash": "0xf869316aa79c5bde6c5933b68559eb7c40d34cce849f1bc26ff704500ca7884d",
      "transactionIndex": "0x0",
      "blockHash": "0xd0c951554373e1ead81aaaf011c9506114743a84b3a12aca568d6fd24d38f136",
      "blockNumber": "0x2c1fe69",
      "gasUsed": "0xdfbdf",
      "effectiveGasPrice": "0x20d41b533",
      "blobGasPrice": "0x1",
      "from": "0x760c3c9c5985e29cf4239fa1e938a19471393acd",
      "to": "0xb2a43445b97cd6a179033788d763b8d0c0487e36",
      "contractAddress": null
    },
    {
      "status": "0x1",
      "cumulativeGasUsed": "0xba33",
      "logs": [
        {
          "address": "0xed84043cba395bd3eacec6b378e49cd66e94941d",
          "topics": [
            "0xf93f9a76c1bf3444d22400a00cb9fe990e6abe9dbb333fda48859cfee864543d",
            "0x0000000000000000000000006389f7083468a6005abfaf8126b688e9aede3ba9"
          ],
          "data": "0x0000000000000000000000000000000000000000000000000000000000000001",
          "blockHash": "0x382db1e25d3f937230dbea319ec51c392526bf7142fd962dd4841cf8ae994a1e",
          "blockNumber": "0x2c1fe6a",
          "blockTimestamp": "0x68c02e79",
          "transactionHash": "0x264be67a81ada59c8614aec751646f3afb0b403b99cbca8dac239af9dd530469",
          "transactionIndex": "0x0",
          "logIndex": "0x0",
          "removed": false
        }
      ],
      "logsBloom": "0x00000000000000000000000000000000000000000000000000100000000000000000000000200000000000000000000000000000000000000000000000000000000000000000000000000000000080000000000000000000000000000000000000000001000000000000000000000000000000000000000000000000000000000000000000000000000000000004000000000000000000000000000000000000000000000000000000000000000000000000000000000000200000000000000000000000000000000000000000000000000008000000000000000000000000000000000000000000000000000000040000000000002000000000000000000000",
      "type": "0x2",
      "transactionHash": "0x264be67a81ada59c8614aec751646f3afb0b403b99cbca8dac239af9dd530469",
      "transactionIndex": "0x0",
      "blockHash": "0x382db1e25d3f937230dbea319ec51c392526bf7142fd962dd4841cf8ae994a1e",
      "blockNumber": "0x2c1fe6a",
      "gasUsed": "0xba33",
      "effectiveGasPrice": "0x1cb9fa7e8",
      "blobGasPrice": "0x1",
      "from": "0xfc4b72fd6309d2e68b595c56eacb256d2fe9b881",
      "to": "0xed84043cba395bd3eacec6b378e49cd66e94941d",
      "contractAddress": null
    }
  ],
  "libraries": [],
  "pending": [],
  "returns": {},
  "timestamp": 1758612827869,
  "chain": 146,
  "commit": null
}