{
  "transactions": [
    {
      "hash": "0xde4b7af9a2976d88bf0acf342152ab8d6ca398cb88faa4da2a6876248e4bba12",
      "transactionType": "CALL",
      "contractName": null,
      "contractAddress": "0xb1616bf7b4096ad698b92c64faa8198d83158889",
      "function": null,
      "arguments": null,
      "transaction": {
        "from": "0xf39fd6e51aad88f6f4ce6ab8827279cfffb92266",
        "to": "0xb1616bf7b4096ad698b92c64faa8198d83158889",
        "gas": "0x714d",
        "value": "0x8ac7230489e80000",
        "input": "0x",
        "nonce": "0xa",
        "chainId": "0x92"
      },
      "additionalContracts": [],
      "isFixedGasLimit": false
    },
    {
      "hash": "0xe96ba3e480912f8aab969c085f5cc83f57449b773f8fc11bc0f63b32d229a768",
      "transactionType": "CALL",
      "contractName": null,
      "contractAddress": "0x83a6d8d9aa761e7e08ebe0ba5399970f9e8f61d9",
      "function": "transfer(address,uint256)",
      "arguments": [
        "0xB1616BF7B4096ad698b92c64FAa8198d83158889",
        "10000000000000000000000"
      ],
      "transaction": {
        "from": "0xab82b2ea6bb96d56b5996d9219d2bfd9d6943520",
        "to": "0x83a6d8d9aa761e7e08ebe0ba5399970f9e8f61d9",
        "gas": "0x11689",
        "value": "0x0",
        "input": "0xa9059cbb000000000000000000000000b1616bf7b4096ad698b92c64faa8198d8315888900000000000000000000000000000000000000000000021e19e0c9bab2400000",
        "nonce": "0x1d",
        "chainId": "0x92"
      },
      "additionalContracts": [],
      "isFixedGasLimit": false
    },
    {
      "hash": "0xb59c6fac3086227c13b985e905dc8c9560339124321c99c38d2575117ed8a587",
      "transactionType": "CALL",
      "contractName": null,
      "contractAddress": "0x30047cca309b7aac3613ae5b990cf460253c9b98",
      "function": "enterMarkets(address[])",
      "arguments": [
        "[0x16d4b53DE6abA4B68480C7A3B6711DF25fcb12D7, 0xb2a43445B97cd6A179033788D763B8d0c0487E36]"
      ],
      "transaction": {
        "from": "0xb1616bf7b4096ad698b92c64faa8198d83158889",
        "to": "0x30047cca309b7aac3613ae5b990cf460253c9b98",
        "gas": "0x358aa",
        "value": "0x0",
        "input": "0xc29982380000000000000000000000000000000000000000000000000000000000000020000000000000000000000000000000000000000000000000000000000000000200000000000000000000000016d4b53de6aba4b68480c7a3b6711df25fcb12d7000000000000000000000000b2a43445b97cd6a179033788d763b8d0c0487e36",
        "nonce": "0x0",
        "chainId": "0x92"
      },
      "additionalContracts": [],
      "isFixedGasLimit": false
    },
    {
      "hash": "0xe5e9e90a0d81873c1fdb21b4210ee88d6a1eeb4a72f40b94eb0203ed552e77d8",
      "transactionType": "CALL",
      "contractName": null,
      "contractAddress": "0x83a6d8d9aa761e7e08ebe0ba5399970f9e8f61d9",
      "function": "approve(address,uint256)",
      "arguments": [
        "0x16d4b53DE6abA4B68480C7A3B6711DF25fcb12D7",
        "10000000000000000000000"
      ],
      "transaction": {
        "from": "0xb1616bf7b4096ad698b92c64faa8198d83158889",
        "to": "0x83a6d8d9aa761e7e08ebe0ba5399970f9e8f61d9",
        "gas": "0xfaa2",
        "value": "0x0",
        "input": "0x095ea7b300000000000000000000000016d4b53de6aba4b68480c7a3b6711df25fcb12d700000000000000000000000000000000000000000000021e19e0c9bab2400000",
        "nonce": "0x1",
        "chainId": "0x92"
      },
      "additionalContracts": [],
      "isFixedGasLimit": false
    },
    {
      "hash": "0x145885378c7ebc40e54a0605d94dcaaeee932efaaff4c17e2338e4b75b62ca12",
      "transactionType": "CALL",
      "contractName": null,
      "contractAddress": "0x16d4b53de6aba4b68480c7a3b6711df25fcb12d7",
      "function": "mint(uint256)",
      "arguments": [
        "10000000000000000000000"
      ],
      "transaction": {
        "from": "0xb1616bf7b4096ad698b92c64faa8198d83158889",
        "to": "0x16d4b53de6aba4b68480c7a3b6711df25fcb12d7",
        "gas": "0x2dac1",
        "value": "0x0",
        "input": "0xa0712d6800000000000000000000000000000000000000000000021e19e0c9bab2400000",
        "nonce": "0x2",
        "chainId": "0x92"
      },
      "additionalContracts": [],
      "isFixedGasLimit": false
    },
    {
      "hash": "0x63090dc57ef52e5cdbb6aebc3f92d2d22c080beb51aeae71cd553fc303c0799a",
      "transactionType": "CALL",
      "contractName": null,
      "contractAddress": "0xb2a43445b97cd6a179033788d763b8d0c0487e36",
      "function": "borrow(uint256)",
      "arguments": [
        "60000000000000000000000"
      ],
      "transaction": {
        "from": "0xb1616bf7b4096ad698b92c64faa8198d83158889",
        "to": "0xb2a43445b97cd6a179033788d763b8d0c0487e36",
        "gas": "0x12465e",
        "value": "0x0",
        "input": "0xc5ebeaec000000000000000000000000000000000000000000000cb49b44ba602d800000",
        "nonce": "0x3",
        "chainId": "0x92"
      },
      "additionalContracts": [],
      "isFixedGasLimit": false
    }
  ],
  "receipts": [
    {
      "status": "0x1",
      "cumulativeGasUsed": "0x5208",
      "logs": [],
      "logsBloom": "0x00000000000000000000000000000000000000000000000000000000000000000000000000000000000000000000000000000000000000000000000000000000000000000000000000000000000000000000000000000000000000000000000000000000000000000000000000000000000000000000000000000000000000000000000000000000000000000000000000000000000000000000000000000000000000000000000000000000000000000000000000000000000000000000000000000000000000000000000000000000000000000000000000000000000000000000000000000000000000000000000000000000000000000000000000000000",
      "type": "0x2",
      "transactionHash": "0xde4b7af9a2976d88bf0acf342152ab8d6ca398cb88faa4da2a6876248e4bba12",
      "transactionIndex": "0x0",
      "blockHash": "0x5f2fd38750df3edf18b774dfb59b869010cc6e104b3863f6a528a60a252dab98",
      "blockNumber": "0x2c1fe6b",
      "gasUsed": "0x5208",
      "effectiveGasPrice": "0x1922bfab6",
      "blobGasPrice": "0x1",
      "from": "0xf39fd6e51aad88f6f4ce6ab8827279cfffb92266",
      "to": "0xb1616bf7b4096ad698b92c64faa8198d83158889",
      "contractAddress": null
    },
    {
      "status": "0x1",
      "cumulativeGasUsed": "0xc9a8",
      "logs": [
        {
          "address": "0x83a6d8d9aa761e7e08ebe0ba5399970f9e8f61d9",
          "topics": [
            "0xddf252ad1be2c89b69c2b068fc378daa952ba7f163c4a11628f55a4df523b3ef",
            "0x000000000000000000000000ab82b2ea6bb96d56b5996d9219d2bfd9d6943520",
            "0x000000000000000000000000b1616bf7b4096ad698b92c64faa8198d83158889"
          ],
          "data": "0x00000000000000000000000000000000000000000000021e19e0c9bab2400000",
          "blockHash": "0xb09b6afbe0f49d3e0fba8ec83f025e265f3fb7fb4bf0f7053be2163ac3d444ba",
          "blockNumber": "0x2c1fe6c",
          "blockTimestamp": "0x68c02e7d",
          "transactionHash": "0xe96ba3e480912f8aab969c085f5cc83f57449b773f8fc11bc0f63b32d229a768",
          "transactionIndex": "0x0",
          "logIndex": "0x0",
          "removed": false
        }
      ],
      "logsBloom": "0x00000000000000000000000008000000008000000000000000000000000000000000000000000000000000000000000000000000000000000000000000000000000000000000000000000008000000000c00000000000000000000000020000000000000000000000000000000000000000000000000000000000010000000004000000000000000000000000000000000000000000000000000000000000000000000000020000000000000000000000000000000000000000000000000000000000002000000000200000000000000000000000000000000000000000000000000000000000000000000000000000000000080000000000000000000000000",
      "type": "0x2",
      "transactionHash": "0xe96ba3e480912f8aab969c085f5cc83f57449b773f8fc11bc0f63b32d229a768",
      "transactionIndex": "0x0",
      "blockHash": "0xb09b6afbe0f49d3e0fba8ec83f025e265f3fb7fb4bf0f7053be2163ac3d444ba",
      "blockNumber": "0x2c1fe6c",
      "gasUsed": "0xc9a8",
      "effectiveGasPrice": "0x15fe6970d",
      "blobGasPrice": "0x1",
      "from": "0xab82b2ea6bb96d56b5996d9219d2bfd9d6943520",
      "to": "0x83a6d8d9aa761e7e08ebe0ba5399970f9e8f61d9",
      "contractAddress": null
    },
    {
      "status": "0x1",
      "cumulativeGasUsed": "0x249c1",
      "logs": [
        {
          "address": "0x30047cca309b7aac3613ae5b990cf460253c9b98",
          "topics": [
            "0x3ab23ab0d51cccc0c3085aec51f99228625aa1a922b3a8ca89a26b0f2027a1a5"
          ],
          "data": "0x00000000000000000000000016d4b53de6aba4b68480c7a3b6711df25fcb12d7000000000000000000000000b1616bf7b4096ad698b92c64faa8198d83158889",
          "blockHash": "0xfd9c07d4658f3203e841c6a77964dec80943964718656f26e97c3bc0e6eabfd7",
          "blockNumber": "0x2c1fe6d",
          "blockTimestamp": "0x68c02e7d",
          "transactionHash": "0xb59c6fac3086227c13b985e905dc8c9560339124321c99c38d2575117ed8a587",
          "transactionIndex": "0x0",
          "logIndex": "0x0",
          "removed": false
        },
        {
          "address": "0x30047cca309b7aac3613ae5b990cf460253c9b98",
          "topics": [
            "0x3ab23ab0d51cccc0c3085aec51f99228625aa1a922b3a8ca89a26b0f2027a1a5"
          ],
          "data": "0x000000000000000000000000b2a43445b97cd6a179033788d763b8d0c0487e36000000000000000000000000b1616bf7b4096ad698b92c64faa8198d83158889",
          "blockHash": "0xfd9c07d4658f3203e841c6a77964dec80943964718656f26e97c3bc0e6eabfd7",
          "blockNumber": "0x2c1fe6d",
          "blockTimestamp": "0x68c02e7d",
          "transactionHash": "0xb59c6fac3086227c13b985e905dc8c9560339124321c99c38d2575117ed8a587",
          "transactionIndex": "0x0",
          "logIndex": "0x1",
          "removed": false
        }
      ],
      "logsBloom": "0x00000000000000000000000000000000000000000000000000000000000000000000000000000000000000000000000000000000010000010000000000000000000000000000000000000000000000000000000000000000000000000000000000000000000000000004000000000000000000000010000000000000000000000000000000000000000000000000000000000000000000000000000000000000400000000000000000000000000000000000000000000000000000000000000000000000000000000000000000000000000000000000000000000000000000020000000000000000000000000000000000000000000000000000000000000000",
      "type": "0x2",
      "transactionHash": "0xb59c6fac3086227c13b985e905dc8c9560339124321c99c38d2575117ed8a587",
      "transactionIndex": "0x0",
      "blockHash": "0xfd9c07d4658f3203e841c6a77964dec80943964718656f26e97c3bc0e6eabfd7",
      "blockNumber": "0x2c1fe6d",
      "gasUsed": "0x249c1",
      "effectiveGasPrice": "0x133e9ffb3",
      "blobGasPrice": "0x1",
      "from": "0xb1616bf7b4096ad698b92c64faa8198d83158889",
      "to": "0x30047cca309b7aac3613ae5b990cf460253c9b98",
      "contractAddress": null
    },
    {
      "status": "0x1",
      "cumulativeGasUsed": "0xb575",
      "logs": [
        {
          "address": "0x83a6d8d9aa761e7e08ebe0ba5399970f9e8f61d9",
          "topics": [
            "0x8c5be1e5ebec7d5bd14f71427d1e84f3dd0314c0f7b2291e5b200ac8c7c3b925",
            "0x000000000000000000000000b1616bf7b4096ad698b92c64faa8198d83158889",
            "0x00000000000000000000000016d4b53de6aba4b68480c7a3b6711df25fcb12d7"
          ],
          "data": "0x00000000000000000000000000000000000000000000021e19e0c9bab2400000",
          "blockHash": "0x795cccb211d0da9bdd2b74e4cbf8d459b1211b8235a17fc9f05128f0f354b3f2",
          "blockNumber": "0x2c1fe6e",
          "blockTimestamp": "0x68c02e7d",
          "transactionHash": "0xe5e9e90a0d81873c1fdb21b4210ee88d6a1eeb4a72f40b94eb0203ed552e77d8",
          "transactionIndex": "0x0",
          "logIndex": "0x0",
          "removed": false
        }
      ],
      "logsBloom": "0x00000000000000000000000000000000008000000000000000000000000000000000000000000000000000000000000000000000000000000000000000200080000000000000000000000000000000000c00000000000000000000000020000000000000000000000000000000000000000000000000000000000000000000000000000000000000000000000000000000000000000000004000000000000000020000000000000000000000000000000000000000000000000000000000000000000000000000000200000000000000000000000000000000020000000000000010000000000000000000000000000000000080000000000000000000000000",
      "type": "0x2",
      "transactionHash": "0xe5e9e90a0d81873c1fdb21b4210ee88d6a1eeb4a72f40b94eb0203ed552e77d8",
      "transactionIndex": "0x0",
      "blockHash": "0x795cccb211d0da9bdd2b74e4cbf8d459b1211b8235a17fc9f05128f0f354b3f2",
      "blockNumber": "0x2c1fe6e",
      "gasUsed": "0xb575",
      "effectiveGasPrice": "0x10d6d570a",
      "blobGasPrice": "0x1",
      "from": "0xb1616bf7b4096ad698b92c64faa8198d83158889",
      "to": "0x83a6d8d9aa761e7e08ebe0ba5399970f9e8f61d9",
      "contractAddress": null
    },
    {
      "status": "0x1",
      "cumulativeGasUsed": "0x1fe9a",
      "logs": [
        {
          "address": "0x16d4b53de6aba4b68480c7a3b6711df25fcb12d7",
          "topics": [
            "0x4dec04e750ca11537cabcd8a9eab06494de08da3735bc8871cd41250e190bc04"
          ],
          "data": "0x000000000000000000000000000000000000000000000bb5ca357d18cd35e4d600000000000000000000000000000000000000000000000000000000000000000000000000000000000000000000000000000000000000000de0b6b3a76400000000000000000000000000000000000000000000000000000000000000000000",
          "blockHash": "0x93e4d5e58cb8c98f2f53d567d102e5050f809f6d9a601cc2c206a5b4fd1731a3",
          "blockNumber": "0x2c1fe6f",
          "blockTimestamp": "0x68c02e7d",
          "transactionHash": "0x145885378c7ebc40e54a0605d94dcaaeee932efaaff4c17e2338e4b75b62ca12",
          "transactionIndex": "0x0",
          "logIndex": "0x0",
          "removed": false
        },
        {
          "address": "0x83a6d8d9aa761e7e08ebe0ba5399970f9e8f61d9",
          "topics": [
            "0xddf252ad1be2c89b69c2b068fc378daa952ba7f163c4a11628f55a4df523b3ef",
            "0x000000000000000000000000b1616bf7b4096ad698b92c64faa8198d83158889",
            "0x00000000000000000000000016d4b53de6aba4b68480c7a3b6711df25fcb12d7"
          ],
          "data": "0x00000000000000000000000000000000000000000000021e19e0c9bab2400000",
          "blockHash": "0x93e4d5e58cb8c98f2f53d567d102e5050f809f6d9a601cc2c206a5b4fd1731a3",
          "blockNumber": "0x2c1fe6f",
          "blockTimestamp": "0x68c02e7d",
          "transactionHash": "0x145885378c7ebc40e54a0605d94dcaaeee932efaaff4c17e2338e4b75b62ca12",
          "transactionIndex": "0x0",
          "logIndex": "0x1",
          "removed": false
        },
        {
          "address": "0x16d4b53de6aba4b68480c7a3b6711df25fcb12d7",
          "topics": [
            "0x4c209b5fc8ad50758f13e2e1088ba56a560dff690a1c6fef26394f4c03821c4f"
          ],
          "data": "0x000000000000000000000000b1616bf7b4096ad698b92c64faa8198d8315888900000000000000000000000000000000000000000000021e19e0c9bab240000000000000000000000000000000000000000000000000000000002d79883d1ff4",
          "blockHash": "0x93e4d5e58cb8c98f2f53d567d102e5050f809f6d9a601cc2c206a5b4fd1731a3",
          "blockNumber": "0x2c1fe6f",
          "blockTimestamp": "0x68c02e7d",
          "transactionHash": "0x145885378c7ebc40e54a0605d94dcaaeee932efaaff4c17e2338e4b75b62ca12",
          "transactionIndex": "0x0",
          "logIndex": "0x2",
          "removed": false
        },
        {
          "address": "0x16d4b53de6aba4b68480c7a3b6711df25fcb12d7",
          "topics": [
            "0xddf252ad1be2c89b69c2b068fc378daa952ba7f163c4a11628f55a4df523b3ef",
            "0x00000000000000000000000016d4b53de6aba4b68480c7a3b6711df25fcb12d7",
            "0x000000000000000000000000b1616bf7b4096ad698b92c64faa8198d83158889"
          ],
          "data": "0x00000000000000000000000000000000000000000000000000002d79883d1ff4",
          "blockHash": "0x93e4d5e58cb8c98f2f53d567d102e5050f809f6d9a601cc2c206a5b4fd1731a3",
          "blockNumber": "0x2c1fe6f",
          "blockTimestamp": "0x68c02e7d",
          "transactionHash": "0x145885378c7ebc40e54a0605d94dcaaeee932efaaff4c17e2338e4b75b62ca12",
          "transactionIndex": "0x0",
          "logIndex": "0x3",
          "removed": false
        }
      ],
      "logsBloom": "0x00000000000000000000000000000000008000000000400000000000000001000000000000000000000000000000000000000000020000000000000000000080000000000000000000000008000000000c00000000000010000000000020000000000000000000000000000000000000000000000008000000000010000000000000000000000000000000000400000000000000000000004000000000000080000000000000000000000000000000000000000000000000000000000000000000000002000000000200000000020000000000000000000000020000000000000000000000000000000000000000000000200080000000000000000000000000",
      "type": "0x2",
      "transactionHash": "0x145885378c7ebc40e54a0605d94dcaaeee932efaaff4c17e2338e4b75b62ca12",
      "transactionIndex": "0x0",
      "blockHash": "0x93e4d5e58cb8c98f2f53d567d102e5050f809f6d9a601cc2c206a5b4fd1731a3",
      "blockNumber": "0x2c1fe6f",
      "gasUsed": "0x1fe9a",
      "effectiveGasPrice": "0xebbfd52c",
      "blobGasPrice": "0x1",
      "from": "0xb1616bf7b4096ad698b92c64faa8198d83158889",
      "to": "0x16d4b53de6aba4b68480c7a3b6711df25fcb12d7",
      "contractAddress": null
    },
    {
      "status": "0x1",
      "cumulativeGasUsed": "0xdfbdf",
      "logs": [
        {
          "address": "0xb2a43445b97cd6a179033788d763b8d0c0487e36",
          "topics": [
            "0x4dec04e750ca11537cabcd8a9eab06494de08da3735bc8871cd41250e190bc04"
          ],
          "data": "0x00000000000000000000000000000000000000000000b8d28de9a5336fdf3b0f00000000000000000000000000000000000000000000000000000000000000000000000000000000000000000000000000000000000000000de0b6b3a76400000000000000000000000000000000000000000000000086f19f0565d19409148f",
          "blockHash": "0x69f05f2662243b6854ae4efc73292d6939cb87d3bbc0ff443bd4b8d66811a321",
          "blockNumber": "0x2c1fe70",
          "blockTimestamp": "0x68c02e7d",
          "transactionHash": "0x63090dc57ef52e5cdbb6aebc3f92d2d22c080beb51aeae71cd553fc303c0799a",
          "transactionIndex": "0x0",
          "logIndex": "0x0",
          "removed": false
        },
        {
          "address": "0xe5da20f15420ad15de0fa650600afc998bbe3955",
          "topics": [
            "0xddf252ad1be2c89b69c2b068fc378daa952ba7f163c4a11628f55a4df523b3ef",
            "0x000000000000000000000000ed84043cba395bd3eacec6b378e49cd66e94941d",
            "0x000000000000000000000000b2a43445b97cd6a179033788d763b8d0c0487e36"
          ],
          "data": "0x000000000000000000000000000000000000000000000cb49b44ba602d800000",
          "blockHash": "0x69f05f2662243b6854ae4efc73292d6939cb87d3bbc0ff443bd4b8d66811a321",
          "blockNumber": "0x2c1fe70",
          "blockTimestamp": "0x68c02e7d",
          "transactionHash": "0x63090dc57ef52e5cdbb6aebc3f92d2d22c080beb51aeae71cd553fc303c0799a",
          "transactionIndex": "0x0",
          "logIndex": "0x1",
          "removed": false
        },
        {
          "address": "0xed84043cba395bd3eacec6b378e49cd66e94941d",
          "topics": [
            "0xeb4c69d43332aa08f82f73cb19c169a68ec508a9e2e758868a1b4e078ed15059"
          ],
          "data": "0x000000000000000000000000000000000000000000000cb49b44ba602d800000",
          "blockHash": "0x69f05f2662243b6854ae4efc73292d6939cb87d3bbc0ff443bd4b8d66811a321",
          "blockNumber": "0x2c1fe70",
          "blockTimestamp": "0x68c02e7d",
          "transactionHash": "0x63090dc57ef52e5cdbb6aebc3f92d2d22c080beb51aeae71cd553fc303c0799a",
          "transactionIndex": "0x0",
          "logIndex": "0x2",
          "removed": false
        },
        {
          "address": "0xb2a43445b97cd6a179033788d763b8d0c0487e36",
          "topics": [
            "0x13ed6866d4e1ee6da46f845c46d7e54120883d75c5ea9a2dacc1c4ca8984ab80"
          ],
          "data": "0x000000000000000000000000b1616bf7b4096ad698b92c64faa8198d83158889000000000000000000000000000000000000000000000cb49b44ba602d800000000000000000000000000000000000000000000000000cb49b44ba602d8000000000000000000000000000000000000000000000000093a63a4a2031c189148f",
          "blockHash": "0x69f05f2662243b6854ae4efc73292d6939cb87d3bbc0ff443bd4b8d66811a321",
          "blockNumber": "0x2c1fe70",
          "blockTimestamp": "0x68c02e7d",
          "transactionHash": "0x63090dc57ef52e5cdbb6aebc3f92d2d22c080beb51aeae71cd553fc303c0799a",
          "transactionIndex": "0x0",
          "logIndex": "0x3",
          "removed": false
        },
        {
          "address": "0xe5da20f15420ad15de0fa650600afc998bbe3955",
          "topics": [
            "0xddf252ad1be2c89b69c2b068fc378daa952ba7f163c4a11628f55a4df523b3ef",
            "0x000000000000000000000000b2a43445b97cd6a179033788d763b8d0c0487e36",
            "0x000000000000000000000000b1616bf7b4096ad698b92c64faa8198d83158889"
          ],
          "data": "0x000000000000000000000000000000000000000000000cb49b44ba602d800000",
          "blockHash": "0x69f05f2662243b6854ae4efc73292d6939cb87d3bbc0ff443bd4b8d66811a321",
          "blockNumber": "0x2c1fe70",
          "blockTimestamp": "0x68c02e7d",
          "transactionHash": "0x63090dc57ef52e5cdbb6aebc3f92d2d22c080beb51aeae71cd553fc303c0799a",
          "transactionIndex": "0x0",
          "logIndex": "0x4",
          "removed": false
        }
      ],
      "logsBloom": "0x00000000200000000000000000000000008000000000400000100000000000000000000000009000000100000000000000000000000000000000800000000000000000000000000000000008000000000800000000020000000000000000010040000000000000000000000000000000000002000000000000040010000000000002003000000000000000000000000000000000000000000000000000000080000000000000000000000000000000000000000000000000200000000000000000000002000000080000000000000800000008000000002000000000000000000000000000000000000000000000000000200482000000000000000000000000",
      "type": "0x2",
      "transactionHash": "0x63090dc57ef52e5cdbb6aebc3f92d2d22c080beb51aeae71cd553fc303c0799a",
      "transactionIndex": "0x0",
      "blockHash": "0x69f05f2662243b6854ae4efc73292d6939cb87d3bbc0ff443bd4b8d66811a321",
      "blockNumber": "0x2c1fe70",
      "gasUsed": "0xdfbdf",
      "effectiveGasPrice": "0xce483f81",
      "blobGasPrice": "0x1",
      "from": "0xb1616bf7b4096ad698b92c64faa8198d83158889",
      "to": "0xb2a43445b97cd6a179033788d763b8d0c0487e36",
      "contractAddress": null
    }
  ],
  "libraries": [],
  "pending": [],
  "returns": {},
  "timestamp": 1758612832102,
  "chain": 146,
  "commit": null
}