{
  "transactions": [
    {
      "hash": "0xd49709bcf19331de3b4ddfe60f34a57bd8901f48112035672aebfe245daadd0c",
      "transactionType": "CALL",
      "contractName": null,
      "contractAddress": "0xb1616bf7b4096ad698b92c64faa8198d83158889",
      "function": null,
      "arguments": null,
      "transaction": {
        "from": "0xf39fd6e51aad88f6f4ce6ab8827279cfffb92266",
        "to": "0xb1616bf7b4096ad698b92c64faa8198d83158889",
        "gas": "0x714d",
        "value": "0x8ac7230489e80000",
        "input": "0x",
        "nonce": "0xc",
        "chainId": "0x92"
      },
      "additionalContracts": [],
      "isFixedGasLimit": false
    },
    {
      "hash": "0x3fe7b1fddfd44af7c742d2213a9595b2afb740398ad2b45624cd6f1a4aecd928",
      "transactionType": "CALL",
      "contractName": null,
      "contractAddress": "0x83a6d8d9aa761e7e08ebe0ba5399970f9e8f61d9",
      "function": "transfer(address,uint256)",
      "arguments": [
        "0xB1616BF7B4096ad698b92c64FAa8198d83158889",
        "10000000000000000000000"
      ],
      "transaction": {
        "from": "0xab82b2ea6bb96d56b5996d9219d2bfd9d6943520",
        "to": "0x83a6d8d9aa761e7e08ebe0ba5399970f9e8f61d9",
        "gas": "0x11689",
        "value": "0x0",
        "input": "0xa9059cbb000000000000000000000000b1616bf7b4096ad698b92c64faa8198d8315888900000000000000000000000000000000000000000000021e19e0c9bab2400000",
        "nonce": "0x1d",
        "chainId": "0x92"
      },
      "additionalContracts": [],
      "isFixedGasLimit": false
    },
    {
      "hash": "0x9eb18ba104ae9b03f207e7f4340e26fceb8df6850eb67c852eeeb2c272834665",
      "transactionType": "CALL",
      "contractName": null,
      "contractAddress": "0x30047cca309b7aac3613ae5b990cf460253c9b98",
      "function": "enterMarkets(address[])",
      "arguments": [
        "[0x16d4b53DE6abA4B68480C7A3B6711DF25fcb12D7, 0xb2a43445B97cd6A179033788D763B8d0c0487E36]"
      ],
      "transaction": {
        "from": "0xb1616bf7b4096ad698b92c64faa8198d83158889",
        "to": "0x30047cca309b7aac3613ae5b990cf460253c9b98",
        "gas": "0x358aa",
        "value": "0x0",
        "input": "0xc29982380000000000000000000000000000000000000000000000000000000000000020000000000000000000000000000000000000000000000000000000000000000200000000000000000000000016d4b53de6aba4b68480c7a3b6711df25fcb12d7000000000000000000000000b2a43445b97cd6a179033788d763b8d0c0487e36",
        "nonce": "0x0",
        "chainId": "0x92"
      },
      "additionalContracts": [],
      "isFixedGasLimit": false
    },
    {
      "hash": "0x6e6759a5ecb0df6f6d97ac38227bbedfc995c7e472b73535dfd72e2a9019d567",
      "transactionType": "CALL",
      "contractName": null,
      "contractAddress": "0x83a6d8d9aa761e7e08ebe0ba5399970f9e8f61d9",
      "function": "approve(address,uint256)",
      "arguments": [
        "0x16d4b53DE6abA4B68480C7A3B6711DF25fcb12D7",
        "10000000000000000000000"
      ],
      "transaction": {
        "from": "0xb1616bf7b4096ad698b92c64faa8198d83158889",
        "to": "0x83a6d8d9aa761e7e08ebe0ba5399970f9e8f61d9",
        "gas": "0xfaa2",
        "value": "0x0",
        "input": "0x095ea7b300000000000000000000000016d4b53de6aba4b68480c7a3b6711df25fcb12d700000000000000000000000000000000000000000000021e19e0c9bab2400000",
        "nonce": "0x1",
        "chainId": "0x92"
      },
      "additionalContracts": [],
      "isFixedGasLimit": false
    },
    {
      "hash": "0x57521862bd154663297eff16ebd072376d4d5319a4960337c53a95ac94b3faa2",
      "transactionType": "CALL",
      "contractName": null,
      "contractAddress": "0x16d4b53de6aba4b68480c7a3b6711df25fcb12d7",
      "function": "mint(uint256)",
      "arguments": [
        "10000000000000000000000"
      ],
      "transaction": {
        "from": "0xb1616bf7b4096ad698b92c64faa8198d83158889",
        "to": "0x16d4b53de6aba4b68480c7a3b6711df25fcb12d7",
        "gas": "0x2dac1",
        "value": "0x0",
        "input": "0xa0712d6800000000000000000000000000000000000000000000021e19e0c9bab2400000",
        "nonce": "0x2",
        "chainId": "0x92"
      },
      "additionalContracts": [],
      "isFixedGasLimit": false
    },
    {
      "hash": "0x0005577c6ec0a119baca4e19f6c93cd48c961f30f46713bed33c3ac80f0c374b",
      "transactionType": "CALL",
      "contractName": null,
      "contractAddress": "0xb2a43445b97cd6a179033788d763b8d0c0487e36",
      "function": "borrow(uint256)",
      "arguments": [
        "60000000000000000000000"
      ],
      "transaction": {
        "from": "0xb1616bf7b4096ad698b92c64faa8198d83158889",
        "to": "0xb2a43445b97cd6a179033788d763b8d0c0487e36",
        "gas": "0x12465e",
        "value": "0x0",
        "input": "0xc5ebeaec000000000000000000000000000000000000000000000cb49b44ba602d800000",
        "nonce": "0x3",
        "chainId": "0x92"
      },
      "additionalContracts": [],
      "isFixedGasLimit": false
    }
  ],
  "receipts": [
    {
      "status": "0x1",
      "cumulativeGasUsed": "0x5208",
      "logs": [],
      "logsBloom": "0x00000000000000000000000000000000000000000000000000000000000000000000000000000000000000000000000000000000000000000000000000000000000000000000000000000000000000000000000000000000000000000000000000000000000000000000000000000000000000000000000000000000000000000000000000000000000000000000000000000000000000000000000000000000000000000000000000000000000000000000000000000000000000000000000000000000000000000000000000000000000000000000000000000000000000000000000000000000000000000000000000000000000000000000000000000000",
      "type": "0x2",
      "transactionHash": "0xd49709bcf19331de3b4ddfe60f34a57bd8901f48112035672aebfe245daadd0c",
      "transactionIndex": "0x0",
      "blockHash": "0x99c21f324a7855ff85ba1cc18cc183a246b7af022969bc3157ef58116627a4f4",
      "blockNumber": "0x2c1fe6d",
      "gasUsed": "0x5208",
      "effectiveGasPrice": "0x133e9c8b1",
      "blobGasPrice": "0x1",
      "from": "0xf39fd6e51aad88f6f4ce6ab8827279cfffb92266",
      "to": "0xb1616bf7b4096ad698b92c64faa8198d83158889",
      "contractAddress": null
    },
    {
      "status": "0x1",
      "cumulativeGasUsed": "0xc9a8",
      "logs": [
        {
          "address": "0x83a6d8d9aa761e7e08ebe0ba5399970f9e8f61d9",
          "topics": [
            "0xddf252ad1be2c89b69c2b068fc378daa952ba7f163c4a11628f55a4df523b3ef",
            "0x000000000000000000000000ab82b2ea6bb96d56b5996d9219d2bfd9d6943520",
            "0x000000000000000000000000b1616bf7b4096ad698b92c64faa8198d83158889"
          ],
          "data": "0x00000000000000000000000000000000000000000000021e19e0c9bab2400000",
          "blockHash": "0xac046d90deea555fe8bdfce4e45253954d609c76a43dde7ae802f82c98673dbf",
          "blockNumber": "0x2c1fe6e",
          "blockTimestamp": "0x68c02dc1",
          "transactionHash": "0x3fe7b1fddfd44af7c742d2213a9595b2afb740398ad2b45624cd6f1a4aecd928",
          "transactionIndex": "0x0",
          "logIndex": "0x0",
          "removed": false
        }
      ],
      "logsBloom": "0x00000000000000000000000008000000008000000000000000000000000000000000000000000000000000000000000000000000000000000000000000000000000000000000000000000008000000000c00000000000000000000000020000000000000000000000000000000000000000000000000000000000010000000004000000000000000000000000000000000000000000000000000000000000000000000000020000000000000000000000000000000000000000000000000000000000002000000000200000000000000000000000000000000000000000000000000000000000000000000000000000000000080000000000000000000000000",
      "type": "0x2",
      "transactionHash": "0x3fe7b1fddfd44af7c742d2213a9595b2afb740398ad2b45624cd6f1a4aecd928",
      "transactionIndex": "0x0",
      "blockHash": "0xac046d90deea555fe8bdfce4e45253954d609c76a43dde7ae802f82c98673dbf",
      "blockNumber": "0x2c1fe6e",
      "gasUsed": "0xc9a8",
      "effectiveGasPrice": "0x10d6ca4cc",
      "blobGasPrice": "0x1",
      "from": "0xab82b2ea6bb96d56b5996d9219d2bfd9d6943520",
      "to": "0x83a6d8d9aa761e7e08ebe0ba5399970f9e8f61d9",
      "contractAddress": null
    },
    {
      "status": "0x1",
      "cumulativeGasUsed": "0x249c1",
      "logs": [
        {
          "address": "0x30047cca309b7aac3613ae5b990cf460253c9b98",
          "topics": [
            "0x3ab23ab0d51cccc0c3085aec51f99228625aa1a922b3a8ca89a26b0f2027a1a5"
          ],
          "data": "0x00000000000000000000000016d4b53de6aba4b68480c7a3b6711df25fcb12d7000000000000000000000000b1616bf7b4096ad698b92c64faa8198d83158889",
          "blockHash": "0x10d3cdd89cf0ddfff195039cdf04d04b47a6d26cad2e43ea43ed075b05e6d992",
          "blockNumber": "0x2c1fe6f",
          "blockTimestamp": "0x68c02dc1",
          "transactionHash": "0x9eb18ba104ae9b03f207e7f4340e26fceb8df6850eb67c852eeeb2c272834665",
          "transactionIndex": "0x0",
          "logIndex": "0x0",
          "removed": false
        },
        {
          "address": "0x30047cca309b7aac3613ae5b990cf460253c9b98",
          "topics": [
            "0x3ab23ab0d51cccc0c3085aec51f99228625aa1a922b3a8ca89a26b0f2027a1a5"
          ],
          "data": "0x000000000000000000000000b2a43445b97cd6a179033788d763b8d0c0487e36000000000000000000000000b1616bf7b4096ad698b92c64faa8198d83158889",
          "blockHash": "0x10d3cdd89cf0ddfff195039cdf04d04b47a6d26cad2e43ea43ed075b05e6d992",
          "blockNumber": "0x2c1fe6f",
          "blockTimestamp": "0x68c02dc1",
          "transactionHash": "0x9eb18ba104ae9b03f207e7f4340e26fceb8df6850eb67c852eeeb2c272834665",
          "transactionIndex": "0x0",
          "logIndex": "0x1",
          "removed": false
        }
      ],
      "logsBloom": "0x00000000000000000000000000000000000000000000000000000000000000000000000000000000000000000000000000000000010000010000000000000000000000000000000000000000000000000000000000000000000000000000000000000000000000000004000000000000000000000010000000000000000000000000000000000000000000000000000000000000000000000000000000000000400000000000000000000000000000000000000000000000000000000000000000000000000000000000000000000000000000000000000000000000000000020000000000000000000000000000000000000000000000000000000000000000",
      "type": "0x2",
      "transactionHash": "0x9eb18ba104ae9b03f207e7f4340e26fceb8df6850eb67c852eeeb2c272834665",
      "transactionIndex": "0x0",
      "blockHash": "0x10d3cdd89cf0ddfff195039cdf04d04b47a6d26cad2e43ea43ed075b05e6d992",
      "blockNumber": "0x2c1fe6f",
      "gasUsed": "0x249c1",
      "effectiveGasPrice": "0xebbf3dc7",
      "blobGasPrice": "0x1",
      "from": "0xb1616bf7b4096ad698b92c64faa8198d83158889",
      "to": "0x30047cca309b7aac3613ae5b990cf460253c9b98",
      "contractAddress": null
    },
    {
      "status": "0x1",
      "cumulativeGasUsed": "0xb575",
      "logs": [
        {
          "address": "0x83a6d8d9aa761e7e08ebe0ba5399970f9e8f61d9",
          "topics": [
            "0x8c5be1e5ebec7d5bd14f71427d1e84f3dd0314c0f7b2291e5b200ac8c7c3b925",
            "0x000000000000000000000000b1616bf7b4096ad698b92c64faa8198d83158889",
            "0x00000000000000000000000016d4b53de6aba4b68480c7a3b6711df25fcb12d7"
          ],
          "data": "0x00000000000000000000000000000000000000000000021e19e0c9bab2400000",
          "blockHash": "0x6a704f985db8f50a6cf9a851a51f44e3273e711e435f813a181472f3b94c0637",
          "blockNumber": "0x2c1fe70",
          "blockTimestamp": "0x68c02dc1",
          "transactionHash": "0x6e6759a5ecb0df6f6d97ac38227bbedfc995c7e472b73535dfd72e2a9019d567",
          "transactionIndex": "0x0",
          "logIndex": "0x0",
          "removed": false
        }
      ],
      "logsBloom": "0x00000000000000000000000000000000008000000000000000000000000000000000000000000000000000000000000000000000000000000000000000200080000000000000000000000000000000000c00000000000000000000000020000000000000000000000000000000000000000000000000000000000000000000000000000000000000000000000000000000000000000000004000000000000000020000000000000000000000000000000000000000000000000000000000000000000000000000000200000000000000000000000000000000020000000000000010000000000000000000000000000000000080000000000000000000000000",
      "type": "0x2",
      "transactionHash": "0x6e6759a5ecb0df6f6d97ac38227bbedfc995c7e472b73535dfd72e2a9019d567",
      "transactionIndex": "0x0",
      "blockHash": "0x6a704f985db8f50a6cf9a851a51f44e3273e711e435f813a181472f3b94c0637",
      "blockNumber": "0x2c1fe70",
      "gasUsed": "0xb575",
      "effectiveGasPrice": "0xce47c9e5",
      "blobGasPrice": "0x1",
      "from": "0xb1616bf7b4096ad698b92c64faa8198d83158889",
      "to": "0x83a6d8d9aa761e7e08ebe0ba5399970f9e8f61d9",
      "contractAddress": null
    },
    {
      "status": "0x1",
      "cumulativeGasUsed": "0x1fe9a",
      "logs": [
        {
          "address": "0x16d4b53de6aba4b68480c7a3b6711df25fcb12d7",
          "topics": [
            "0x4dec04e750ca11537cabcd8a9eab06494de08da3735bc8871cd41250e190bc04"
          ],
          "data": "0x000000000000000000000000000000000000000000000bb5ca357d18cd35e4d600000000000000000000000000000000000000000000000000000000000000000000000000000000000000000000000000000000000000000de0b6b3a76400000000000000000000000000000000000000000000000000000000000000000000",
          "blockHash": "0x643a43106ef2a5b1d9f7db0ec414556d806f7a989d4bc22eccaccdb41db556b3",
          "blockNumber": "0x2c1fe71",
          "blockTimestamp": "0x68c02dc1",
          "transactionHash": "0x57521862bd154663297eff16ebd072376d4d5319a4960337c53a95ac94b3faa2",
          "transactionIndex": "0x0",
          "logIndex": "0x0",
          "removed": false
        },
        {
          "address": "0x83a6d8d9aa761e7e08ebe0ba5399970f9e8f61d9",
          "topics": [
            "0xddf252ad1be2c89b69c2b068fc378daa952ba7f163c4a11628f55a4df523b3ef",
            "0x000000000000000000000000b1616bf7b4096ad698b92c64faa8198d83158889",
            "0x00000000000000000000000016d4b53de6aba4b68480c7a3b6711df25fcb12d7"
          ],
          "data": "0x00000000000000000000000000000000000000000000021e19e0c9bab2400000",
          "blockHash": "0x643a43106ef2a5b1d9f7db0ec414556d806f7a989d4bc22eccaccdb41db556b3",
          "blockNumber": "0x2c1fe71",
          "blockTimestamp": "0x68c02dc1",
          "transactionHash": "0x57521862bd154663297eff16ebd072376d4d5319a4960337c53a95ac94b3faa2",
          "transactionIndex": "0x0",
          "logIndex": "0x1",
          "removed": false
        },
        {
          "address": "0x16d4b53de6aba4b68480c7a3b6711df25fcb12d7",
          "topics": [
            "0x4c209b5fc8ad50758f13e2e1088ba56a560dff690a1c6fef26394f4c03821c4f"
          ],
          "data": "0x000000000000000000000000b1616bf7b4096ad698b92c64faa8198d8315888900000000000000000000000000000000000000000000021e19e0c9bab240000000000000000000000000000000000000000000000000000000002d79883d1ff4",
          "blockHash": "0x643a43106ef2a5b1d9f7db0ec414556d806f7a989d4bc22eccaccdb41db556b3",
          "blockNumber": "0x2c1fe71",
          "blockTimestamp": "0x68c02dc1",
          "transactionHash": "0x57521862bd154663297eff16ebd072376d4d5319a4960337c53a95ac94b3faa2",
          "transactionIndex": "0x0",
          "logIndex": "0x2",
          "removed": false
        },
        {
          "address": "0x16d4b53de6aba4b68480c7a3b6711df25fcb12d7",
          "topics": [
            "0xddf252ad1be2c89b69c2b068fc378daa952ba7f163c4a11628f55a4df523b3ef",
            "0x00000000000000000000000016d4b53de6aba4b68480c7a3b6711df25fcb12d7",
            "0x000000000000000000000000b1616bf7b4096ad698b92c64faa8198d83158889"
          ],
          "data": "0x00000000000000000000000000000000000000000000000000002d79883d1ff4",
          "blockHash": "0x643a43106ef2a5b1d9f7db0ec414556d806f7a989d4bc22eccaccdb41db556b3",
          "blockNumber": "0x2c1fe71",
          "blockTimestamp": "0x68c02dc1",
          "transactionHash": "0x57521862bd154663297eff16ebd072376d4d5319a4960337c53a95ac94b3faa2",
          "transactionIndex": "0x0",
          "logIndex": "0x3",
          "removed": false
        }
      ],
      "logsBloom": "0x00000000000000000000000000000000008000000000400000000000000001000000000000000000000000000000000000000000020000000000000000000080000000000000000000000008000000000c00000000000010000000000020000000000000000000000000000000000000000000000008000000000010000000000000000000000000000000000400000000000000000000004000000000000080000000000000000000000000000000000000000000000000000000000000000000000002000000000200000000020000000000000000000000020000000000000000000000000000000000000000000000200080000000000000000000000000",
      "type": "0x2",
      "transactionHash": "0x57521862bd154663297eff16ebd072376d4d5319a4960337c53a95ac94b3faa2",
      "transactionIndex": "0x0",
      "blockHash": "0x643a43106ef2a5b1d9f7db0ec414556d806f7a989d4bc22eccaccdb41db556b3",
      "blockNumber": "0x2c1fe71",
      "gasUsed": "0x1fe9a",
      "effectiveGasPrice": "0xb47ef00f",
      "blobGasPrice": "0x1",
      "from": "0xb1616bf7b4096ad698b92c64faa8198d83158889",
      "to": "0x16d4b53de6aba4b68480c7a3b6711df25fcb12d7",
      "contractAddress": null
    },
    {
      "status": "0x1",
      "cumulativeGasUsed": "0xdfbdf",
      "logs": [
        {
          "address": "0xb2a43445b97cd6a179033788d763b8d0c0487e36",
          "topics": [
            "0x4dec04e750ca11537cabcd8a9eab06494de08da3735bc8871cd41250e190bc04"
          ],
          "data": "0x00000000000000000000000000000000000000000000b8d28de9a5336fdf3b0f00000000000000000000000000000000000000000000000000000000000000000000000000000000000000000000000000000000000000000de0b6b3a76400000000000000000000000000000000000000000000000086f19f0565d19409148f",
          "blockHash": "0x90c7706fd4d11963657b23c43459e8b70ecde4b257c2b2264afcbbb417dffa72",
          "blockNumber": "0x2c1fe72",
          "blockTimestamp": "0x68c02dc1",
          "transactionHash": "0x0005577c6ec0a119baca4e19f6c93cd48c961f30f46713bed33c3ac80f0c374b",
          "transactionIndex": "0x0",
          "logIndex": "0x0",
          "removed": false
        },
        {
          "address": "0xe5da20f15420ad15de0fa650600afc998bbe3955",
          "topics": [
            "0xddf252ad1be2c89b69c2b068fc378daa952ba7f163c4a11628f55a4df523b3ef",
            "0x000000000000000000000000ed84043cba395bd3eacec6b378e49cd66e94941d",
            "0x000000000000000000000000b2a43445b97cd6a179033788d763b8d0c0487e36"
          ],
          "data": "0x000000000000000000000000000000000000000000000cb49b44ba602d800000",
          "blockHash": "0x90c7706fd4d11963657b23c43459e8b70ecde4b257c2b2264afcbbb417dffa72",
          "blockNumber": "0x2c1fe72",
          "blockTimestamp": "0x68c02dc1",
          "transactionHash": "0x0005577c6ec0a119baca4e19f6c93cd48c961f30f46713bed33c3ac80f0c374b",
          "transactionIndex": "0x0",
          "logIndex": "0x1",
          "removed": false
        },
        {
          "address": "0xed84043cba395bd3eacec6b378e49cd66e94941d",
          "topics": [
            "0xeb4c69d43332aa08f82f73cb19c169a68ec508a9e2e758868a1b4e078ed15059"
          ],
          "data": "0x000000000000000000000000000000000000000000000cb49b44ba602d800000",
          "blockHash": "0x90c7706fd4d11963657b23c43459e8b70ecde4b257c2b2264afcbbb417dffa72",
          "blockNumber": "0x2c1fe72",
          "blockTimestamp": "0x68c02dc1",
          "transactionHash": "0x0005577c6ec0a119baca4e19f6c93cd48c961f30f46713bed33c3ac80f0c374b",
          "transactionIndex": "0x0",
          "logIndex": "0x2",
          "removed": false
        },
        {
          "address": "0xb2a43445b97cd6a179033788d763b8d0c0487e36",
          "topics": [
            "0x13ed6866d4e1ee6da46f845c46d7e54120883d75c5ea9a2dacc1c4ca8984ab80"
          ],
          "data": "0x000000000000000000000000b1616bf7b4096ad698b92c64faa8198d83158889000000000000000000000000000000000000000000000cb49b44ba602d800000000000000000000000000000000000000000000000000cb49b44ba602d8000000000000000000000000000000000000000000000000093a63a4a2031c189148f",
          "blockHash": "0x90c7706fd4d11963657b23c43459e8b70ecde4b257c2b2264afcbbb417dffa72",
          "blockNumber": "0x2c1fe72",
          "blockTimestamp": "0x68c02dc1",
          "transactionHash": "0x0005577c6ec0a119baca4e19f6c93cd48c961f30f46713bed33c3ac80f0c374b",
          "transactionIndex": "0x0",
          "logIndex": "0x3",
          "removed": false
        },
        {
          "address": "0xe5da20f15420ad15de0fa650600afc998bbe3955",
          "topics": [
            "0xddf252ad1be2c89b69c2b068fc378daa952ba7f163c4a11628f55a4df523b3ef",
            "0x000000000000000000000000b2a43445b97cd6a179033788d763b8d0c0487e36",
            "0x000000000000000000000000b1616bf7b4096ad698b92c64faa8198d83158889"
          ],
          "data": "0x000000000000000000000000000000000000000000000cb49b44ba602d800000",
          "blockHash": "0x90c7706fd4d11963657b23c43459e8b70ecde4b257c2b2264afcbbb417dffa72",
          "blockNumber": "0x2c1fe72",
          "blockTimestamp": "0x68c02dc1",
          "transactionHash": "0x0005577c6ec0a119baca4e19f6c93cd48c961f30f46713bed33c3ac80f0c374b",
          "transactionIndex": "0x0",
          "logIndex": "0x4",
          "removed": false
        }
      ],
      "logsBloom": "0x00000000200000000000000000000000008000000000400000100000000000000000000000009000000100000000000000000000000000000000800000000000000000000000000000000008000000000800000000020000000000000000010040000000000000000000000000000000000002000000000000040010000000000002003000000000000000000000000000000000000000000000000000000080000000000000000000000000000000000000000000000000200000000000000000000002000000080000000000000800000008000000002000000000000000000000000000000000000000000000000000200482000000000000000000000000",
      "type": "0x2",
      "transactionHash": "0x0005577c6ec0a119baca4e19f6c93cd48c961f30f46713bed33c3ac80f0c374b",
      "transactionIndex": "0x0",
      "blockHash": "0x90c7706fd4d11963657b23c43459e8b70ecde4b257c2b2264afcbbb417dffa72",
      "blockNumber": "0x2c1fe72",
      "gasUsed": "0xdfbdf",
      "effectiveGasPrice": "0x9def5f5d",
      "blobGasPrice": "0x1",
      "from": "0xb1616bf7b4096ad698b92c64faa8198d83158889",
      "to": "0xb2a43445b97cd6a179033788d763b8d0c0487e36",
      "contractAddress": null
    }
  ],
  "libraries": [],
  "pending": [],
  "returns": {},
  "timestamp": 1758554863531,
  "chain": 146,
  "commit": null
}